{
  "_format": "hh-sol-artifact-1",
  "contractName": "RequestC",
  "sourceName": "contracts/RequestC.sol",
  "abi": [
    {
      "inputs": [],
      "stateMutability": "nonpayable",
      "type": "constructor"
    },
    {
      "inputs": [],
      "name": "admin",
      "outputs": [
        {
          "internalType": "address",
          "name": "",
          "type": "address"
        }
      ],
      "stateMutability": "view",
      "type": "function"
    },
    {
      "inputs": [
        {
          "internalType": "address",
          "name": "_newAdmin",
          "type": "address"
        }
      ],
      "name": "changeAdmin",
      "outputs": [],
      "stateMutability": "nonpayable",
      "type": "function"
    },
    {
      "inputs": [
        {
          "internalType": "string",
          "name": "_type",
          "type": "string"
        },
        {
          "internalType": "string",
          "name": "_location",
          "type": "string"
        },
        {
          "internalType": "string",
          "name": "_urgency",
          "type": "string"
        }
      ],
      "name": "createRequest",
      "outputs": [],
      "stateMutability": "nonpayable",
      "type": "function"
    },
    {
      "inputs": [
        {
          "internalType": "uint256",
          "name": "",
          "type": "uint256"
        }
      ],
      "name": "requests",
      "outputs": [
        {
          "internalType": "string",
          "name": "requestType",
          "type": "string"
        },
        {
          "internalType": "uint256",
          "name": "timestamp",
          "type": "uint256"
        },
        {
          "internalType": "string",
          "name": "location",
          "type": "string"
        },
        {
          "internalType": "string",
          "name": "urgency",
          "type": "string"
        },
        {
          "internalType": "bool",
          "name": "isFulfilled",
          "type": "bool"
        }
      ],
      "stateMutability": "view",
      "type": "function"
    },
    {
      "inputs": [],
      "name": "totalRequests",
      "outputs": [
        {
          "internalType": "uint256",
          "name": "",
          "type": "uint256"
        }
      ],
      "stateMutability": "view",
      "type": "function"
    },
    {
      "inputs": [
        {
          "internalType": "uint256",
          "name": "_index",
          "type": "uint256"
        },
        {
          "internalType": "bool",
          "name": "_status",
          "type": "bool"
        }
      ],
      "name": "updateRequestStatus",
      "outputs": [],
      "stateMutability": "nonpayable",
      "type": "function"
    },
    {
      "inputs": [],
      "name": "viewAllRequests",
      "outputs": [
        {
          "components": [
            {
              "internalType": "string",
              "name": "requestType",
              "type": "string"
            },
            {
              "internalType": "uint256",
              "name": "timestamp",
              "type": "uint256"
            },
            {
              "internalType": "string",
              "name": "location",
              "type": "string"
            },
            {
              "internalType": "string",
              "name": "urgency",
              "type": "string"
            },
            {
              "internalType": "bool",
              "name": "isFulfilled",
              "type": "bool"
            }
          ],
          "internalType": "struct RequestC.Request[]",
          "name": "",
          "type": "tuple[]"
        }
      ],
      "stateMutability": "view",
      "type": "function"
    },
    {
      "inputs": [
        {
          "internalType": "uint256",
          "name": "_index",
          "type": "uint256"
        }
      ],
      "name": "viewRequest",
      "outputs": [
        {
          "components": [
            {
              "internalType": "string",
              "name": "requestType",
              "type": "string"
            },
            {
              "internalType": "uint256",
              "name": "timestamp",
              "type": "uint256"
            },
            {
              "internalType": "string",
              "name": "location",
              "type": "string"
            },
            {
              "internalType": "string",
              "name": "urgency",
              "type": "string"
            },
            {
              "internalType": "bool",
              "name": "isFulfilled",
              "type": "bool"
            }
          ],
          "internalType": "struct RequestC.Request",
          "name": "",
          "type": "tuple"
        }
      ],
      "stateMutability": "view",
      "type": "function"
    }
  ],
  "bytecode": "0x608060405234801561001057600080fd5b50600180546001600160a01b03191633179055610e4c806100326000396000f3fe608060405234801561001057600080fd5b50600436106100885760003560e01c80638f2839701161005b5780638f28397014610100578063a7080a1814610113578063a725463a14610128578063f851a4401461013b57600080fd5b806326e852501461008d5780637496d376146100b657806381d12c58146100cb5780638aea61dc146100ef575b600080fd5b6100a061009b366004610bba565b610166565b6040516100ad9190610db2565b60405180910390f35b6100c96100c4366004610b36565b6103fa565b005b6100de6100d9366004610bba565b6104cd565b6040516100ad959493929190610d1c565b6000546040519081526020016100ad565b6100c961010e366004610b08565b6106ae565b61011b6106fa565b6040516100ad9190610cbb565b6100c9610136366004610bd2565b61092b565b60015461014e906001600160a01b031681565b6040516001600160a01b0390911681526020016100ad565b61019a6040518060a00160405280606081526020016000815260200160608152602001606081526020016000151581525090565b60005482106101e95760405162461bcd60e51b815260206004820152601660248201527514995c5d595cdd08191bd95cc81b9bdd08195e1a5cdd60521b60448201526064015b60405180910390fd5b6000828154811061020a57634e487b7160e01b600052603260045260246000fd5b90600052602060002090600502016040518060a001604052908160008201805461023390610dc5565b80601f016020809104026020016040519081016040528092919081815260200182805461025f90610dc5565b80156102ac5780601f10610281576101008083540402835291602001916102ac565b820191906000526020600020905b81548152906001019060200180831161028f57829003601f168201915b50505050508152602001600182015481526020016002820180546102cf90610dc5565b80601f01602080910402602001604051908101604052809291908181526020018280546102fb90610dc5565b80156103485780601f1061031d57610100808354040283529160200191610348565b820191906000526020600020905b81548152906001019060200180831161032b57829003601f168201915b5050505050815260200160038201805461036190610dc5565b80601f016020809104026020016040519081016040528092919081815260200182805461038d90610dc5565b80156103da5780601f106103af576101008083540402835291602001916103da565b820191906000526020600020905b8154815290600101906020018083116103bd57829003601f168201915b50505091835250506004919091015460ff16151560209091015292915050565b6040805160a0810182528481524260208083019190915291810184905260608101839052600060808201819052805460018101825590805281518051929360059092027f290decd9548b62a8d60345a988386fc84ba6bc95484008f6362f93160ef3e563019261046d92849201906109e8565b5060208281015160018301556040830151805161049092600285019201906109e8565b50606082015180516104ac9160038401916020909101906109e8565b50608091909101516004909101805460ff1916911515919091179055505050565b600081815481106104dd57600080fd5b906000526020600020906005020160009150905080600001805461050090610dc5565b80601f016020809104026020016040519081016040528092919081815260200182805461052c90610dc5565b80156105795780601f1061054e57610100808354040283529160200191610579565b820191906000526020600020905b81548152906001019060200180831161055c57829003601f168201915b50505050509080600101549080600201805461059490610dc5565b80601f01602080910402602001604051908101604052809291908181526020018280546105c090610dc5565b801561060d5780601f106105e25761010080835404028352916020019161060d565b820191906000526020600020905b8154815290600101906020018083116105f057829003601f168201915b50505050509080600301805461062290610dc5565b80601f016020809104026020016040519081016040528092919081815260200182805461064e90610dc5565b801561069b5780601f106106705761010080835404028352916020019161069b565b820191906000526020600020905b81548152906001019060200180831161067e57829003601f168201915b5050506004909301549192505060ff1685565b6001546001600160a01b031633146106d85760405162461bcd60e51b81526004016101e090610d70565b600180546001600160a01b0319166001600160a01b0392909216919091179055565b60606000805480602002602001604051908101604052809291908181526020016000905b8282101561092257838290600052602060002090600502016040518060a001604052908160008201805461075190610dc5565b80601f016020809104026020016040519081016040528092919081815260200182805461077d90610dc5565b80156107ca5780601f1061079f576101008083540402835291602001916107ca565b820191906000526020600020905b8154815290600101906020018083116107ad57829003601f168201915b50505050508152602001600182015481526020016002820180546107ed90610dc5565b80601f016020809104026020016040519081016040528092919081815260200182805461081990610dc5565b80156108665780601f1061083b57610100808354040283529160200191610866565b820191906000526020600020905b81548152906001019060200180831161084957829003601f168201915b5050505050815260200160038201805461087f90610dc5565b80601f01602080910402602001604051908101604052809291908181526020018280546108ab90610dc5565b80156108f85780601f106108cd576101008083540402835291602001916108f8565b820191906000526020600020905b8154815290600101906020018083116108db57829003601f168201915b50505091835250506004919091015460ff161515602091820152908252600192909201910161071e565b50505050905090565b6001546001600160a01b031633146109555760405162461bcd60e51b81526004016101e090610d70565b600054821061099f5760405162461bcd60e51b815260206004820152601660248201527514995c5d595cdd08191bd95cc81b9bdd08195e1a5cdd60521b60448201526064016101e0565b60008083815481106109c157634e487b7160e01b600052603260045260246000fd5b60009182526020909120600590910201600401805460ff1916921515929092179091555050565b8280546109f490610dc5565b90600052602060002090601f016020900481019282610a165760008555610a5c565b82601f10610a2f57805160ff1916838001178555610a5c565b82800160010185558215610a5c579182015b82811115610a5c578251825591602001919060010190610a41565b50610a68929150610a6c565b5090565b5b80821115610a685760008155600101610a6d565b600082601f830112610a91578081fd5b813567ffffffffffffffff80821115610aac57610aac610e00565b604051601f8301601f19908116603f01168101908282118183101715610ad457610ad4610e00565b81604052838152866020858801011115610aec578485fd5b8360208701602083013792830160200193909352509392505050565b600060208284031215610b19578081fd5b81356001600160a01b0381168114610b2f578182fd5b9392505050565b600080600060608486031215610b4a578182fd5b833567ffffffffffffffff80821115610b61578384fd5b610b6d87838801610a81565b94506020860135915080821115610b82578384fd5b610b8e87838801610a81565b93506040860135915080821115610ba3578283fd5b50610bb086828701610a81565b9150509250925092565b600060208284031215610bcb578081fd5b5035919050565b60008060408385031215610be4578182fd5b8235915060208301358015158114610bfa578182fd5b809150509250929050565b60008151808452815b81811015610c2a57602081850181015186830182015201610c0e565b81811115610c3b5782602083870101525b50601f01601f19169290920160200192915050565b6000815160a08452610c6560a0850182610c05565b90506020830151602085015260408301518482036040860152610c888282610c05565b91505060608301518482036060860152610ca28282610c05565b9150506080830151151560808501528091505092915050565b6000602080830181845280855180835260408601915060408160051b8701019250838701855b82811015610d0f57603f19888603018452610cfd858351610c50565b94509285019290850190600101610ce1565b5092979650505050505050565b60a081526000610d2f60a0830188610c05565b8660208401528281036040840152610d478187610c05565b90508281036060840152610d5b8186610c05565b91505082151560808301529695505050505050565b60208082526022908201527f4f6e6c792061646d696e2063616e20706572666f726d2074686973206163746960408201526137b760f11b606082015260800190565b602081526000610b2f6020830184610c50565b600181811c90821680610dd957607f821691505b60208210811415610dfa57634e487b7160e01b600052602260045260246000fd5b50919050565b634e487b7160e01b600052604160045260246000fdfea2646970667358221220cbfddd1cf162ad48d3452982de2e5989361d81f192dab78fa584b98f3876e1e364736f6c63430008040033",
  "linkReferences": {},
  "deployedLinkReferences": {}
}