{
  "_format": "hh-sol-artifact-1",
  "contractName": "Donation",
  "sourceName": "contracts/Donation.sol",
  "abi": [
    {
      "inputs": [
        {
          "internalType": "address",
          "name": "_priceFeed",
          "type": "address"
        },
        {
          "internalType": "uint256",
          "name": "_interval",
          "type": "uint256"
        },
        {
          "internalType": "address payable",
          "name": "_recipient",
          "type": "address"
        }
      ],
      "stateMutability": "nonpayable",
      "type": "constructor"
    },
    {
      "anonymous": false,
      "inputs": [
        {
          "indexed": true,
          "internalType": "uint256",
          "name": "campaignId",
          "type": "uint256"
        },
        {
          "indexed": false,
          "internalType": "string",
          "name": "name",
          "type": "string"
        },
        {
          "indexed": false,
          "internalType": "uint256",
          "name": "targetAmount",
          "type": "uint256"
        }
      ],
      "name": "CampaignCreated",
      "type": "event"
    },
    {
      "anonymous": false,
      "inputs": [
        {
          "indexed": true,
          "internalType": "uint256",
          "name": "campaignId",
          "type": "uint256"
        },
        {
          "indexed": true,
          "internalType": "address",
          "name": "donor",
          "type": "address"
        },
        {
          "indexed": false,
          "internalType": "uint256",
          "name": "amount",
          "type": "uint256"
        }
      ],
      "name": "DonationReceived",
      "type": "event"
    },
    {
      "inputs": [
        {
          "internalType": "bytes32",
          "name": "",
          "type": "bytes32"
        }
      ],
      "name": "campaignIdByName",
      "outputs": [
        {
          "internalType": "uint256",
          "name": "",
          "type": "uint256"
        }
      ],
      "stateMutability": "view",
      "type": "function"
    },
    {
      "inputs": [
        {
          "internalType": "uint256",
          "name": "",
          "type": "uint256"
        }
      ],
      "name": "campaigns",
      "outputs": [
        {
          "internalType": "string",
          "name": "name",
          "type": "string"
        },
        {
          "internalType": "string",
          "name": "country",
          "type": "string"
        },
        {
          "internalType": "string",
          "name": "description",
          "type": "string"
        },
        {
          "internalType": "string",
          "name": "imageCID",
          "type": "string"
        },
        {
          "internalType": "uint256",
          "name": "targetAmount",
          "type": "uint256"
        },
        {
          "internalType": "uint256",
          "name": "totalDonationsReceived",
          "type": "uint256"
        },
        {
          "internalType": "bool",
          "name": "exists",
          "type": "bool"
        }
      ],
      "stateMutability": "view",
      "type": "function"
    },
    {
      "inputs": [
        {
          "internalType": "bytes",
          "name": "",
          "type": "bytes"
        }
      ],
      "name": "checkUpkeep",
      "outputs": [
        {
          "internalType": "bool",
          "name": "upkeepNeeded",
          "type": "bool"
        },
        {
          "internalType": "bytes",
          "name": "",
          "type": "bytes"
        }
      ],
      "stateMutability": "view",
      "type": "function"
    },
    {
      "inputs": [
        {
          "internalType": "string",
          "name": "_name",
          "type": "string"
        },
        {
          "internalType": "string",
          "name": "_country",
          "type": "string"
        },
        {
          "internalType": "string",
          "name": "_description",
          "type": "string"
        },
        {
          "internalType": "string",
          "name": "_imageCID",
          "type": "string"
        },
        {
          "internalType": "uint256",
          "name": "_targetAmount",
          "type": "uint256"
        }
      ],
      "name": "createCampaign",
      "outputs": [],
      "stateMutability": "nonpayable",
      "type": "function"
    },
    {
      "inputs": [
        {
          "internalType": "uint256",
          "name": "_campaignId",
          "type": "uint256"
        }
      ],
      "name": "donate",
      "outputs": [],
      "stateMutability": "payable",
      "type": "function"
    },
    {
      "inputs": [],
      "name": "getAllCampaigns",
      "outputs": [
        {
          "components": [
            {
              "internalType": "string",
              "name": "name",
              "type": "string"
            },
            {
              "internalType": "string",
              "name": "country",
              "type": "string"
            },
            {
              "internalType": "string",
              "name": "description",
              "type": "string"
            },
            {
              "internalType": "string",
              "name": "imageCID",
              "type": "string"
            },
            {
              "internalType": "uint256",
              "name": "targetAmount",
              "type": "uint256"
            },
            {
              "internalType": "uint256",
              "name": "totalDonationsReceived",
              "type": "uint256"
            }
          ],
          "internalType": "struct Donation.CampaignDetails[]",
          "name": "",
          "type": "tuple[]"
        }
      ],
      "stateMutability": "view",
      "type": "function"
    },
    {
      "inputs": [
        {
          "internalType": "uint256",
          "name": "_campaignId",
          "type": "uint256"
        }
      ],
      "name": "getCampaignById",
      "outputs": [
        {
          "components": [
            {
              "internalType": "string",
              "name": "name",
              "type": "string"
            },
            {
              "internalType": "string",
              "name": "country",
              "type": "string"
            },
            {
              "internalType": "string",
              "name": "description",
              "type": "string"
            },
            {
              "internalType": "string",
              "name": "imageCID",
              "type": "string"
            },
            {
              "internalType": "uint256",
              "name": "targetAmount",
              "type": "uint256"
            },
            {
              "internalType": "uint256",
              "name": "totalDonationsReceived",
              "type": "uint256"
            }
          ],
          "internalType": "struct Donation.CampaignDetails",
          "name": "",
          "type": "tuple"
        },
        {
          "internalType": "uint256",
          "name": "",
          "type": "uint256"
        }
      ],
      "stateMutability": "view",
      "type": "function"
    },
    {
      "inputs": [
        {
          "internalType": "uint256",
          "name": "_campaignId",
          "type": "uint256"
        }
      ],
      "name": "getCampaignByIdUSD",
      "outputs": [
        {
          "components": [
            {
              "internalType": "string",
              "name": "name",
              "type": "string"
            },
            {
              "internalType": "string",
              "name": "country",
              "type": "string"
            },
            {
              "internalType": "string",
              "name": "description",
              "type": "string"
            },
            {
              "internalType": "string",
              "name": "imageCID",
              "type": "string"
            },
            {
              "internalType": "uint256",
              "name": "targetAmount",
              "type": "uint256"
            },
            {
              "internalType": "uint256",
              "name": "totalDonationsReceived",
              "type": "uint256"
            }
          ],
          "internalType": "struct Donation.CampaignDetails",
          "name": "",
          "type": "tuple"
        }
      ],
      "stateMutability": "view",
      "type": "function"
    },
    {
      "inputs": [
        {
          "internalType": "string",
          "name": "_name",
          "type": "string"
        }
      ],
      "name": "getCampaignIdByName",
      "outputs": [
        {
          "internalType": "uint256",
          "name": "",
          "type": "uint256"
        }
      ],
      "stateMutability": "view",
      "type": "function"
    },
    {
      "inputs": [],
      "name": "getLatestPrice",
      "outputs": [
        {
          "internalType": "int256",
          "name": "",
          "type": "int256"
        }
      ],
      "stateMutability": "view",
      "type": "function"
    },
    {
      "inputs": [],
      "name": "interval",
      "outputs": [
        {
          "internalType": "uint256",
          "name": "",
          "type": "uint256"
        }
      ],
      "stateMutability": "view",
      "type": "function"
    },
    {
      "inputs": [],
      "name": "lastTransferTime",
      "outputs": [
        {
          "internalType": "uint256",
          "name": "",
          "type": "uint256"
        }
      ],
      "stateMutability": "view",
      "type": "function"
    },
    {
      "inputs": [
        {
          "internalType": "bytes",
          "name": "",
          "type": "bytes"
        }
      ],
      "name": "performUpkeep",
      "outputs": [],
      "stateMutability": "nonpayable",
      "type": "function"
    },
    {
      "inputs": [],
      "name": "recipient",
      "outputs": [
        {
          "internalType": "address payable",
          "name": "",
          "type": "address"
        }
      ],
      "stateMutability": "view",
      "type": "function"
    },
    {
      "inputs": [],
      "name": "totalCampaignsCreated",
      "outputs": [
        {
          "internalType": "uint256",
          "name": "",
          "type": "uint256"
        }
      ],
      "stateMutability": "view",
      "type": "function"
    }
  ],
  "bytecode": "0x60806040523480156200001157600080fd5b5060405162001a7a38038062001a7a833981016040819052620000349162000070565b600080546001600160a01b039485166001600160a01b0319918216179091556002929092556003805491909316911617905542600155620000d0565b60008060006060848603121562000085578283fd5b83516200009281620000b7565b602085015160408601519194509250620000ac81620000b7565b809150509250925092565b6001600160a01b0381168114620000cd57600080fd5b50565b61199a80620000e06000396000f3fe6080604052600436106100e85760003560e01c80637b67faba1161008a578063947a36fb11610059578063947a36fb1461028b578063aaa6db7d146102a1578063e6ffcaa1146102ce578063f14faf6f146102fc57600080fd5b80637b67faba1461021e57806386cdf604146102345780638e15f47314610256578063926912441461026b57600080fd5b80634bf0e868116100c65780634bf0e8681461018257806366d003ac146101985780636e04ff0d146101d05780637a2453d9146101fe57600080fd5b80630fa8c554146100ed578063141961bc1461012d5780634585e33b14610160575b600080fd5b3480156100f957600080fd5b5061011a61010836600461145a565b60066020526000908152604090205481565b6040519081526020015b60405180910390f35b34801561013957600080fd5b5061014d61014836600461145a565b61030f565b6040516101249796959493929190611760565b34801561016c57600080fd5b5061018061017b366004611472565b61056e565b005b34801561018e57600080fd5b5061011a60015481565b3480156101a457600080fd5b506003546101b8906001600160a01b031681565b6040516001600160a01b039091168152602001610124565b3480156101dc57600080fd5b506101f06101eb366004611472565b6105d1565b604051610124929190611745565b34801561020a57600080fd5b5061018061021936600461151a565b6105f0565b34801561022a57600080fd5b5061011a60045481565b34801561024057600080fd5b506102496107dd565b60405161012491906116e4565b34801561026257600080fd5b5061011a610b28565b34801561027757600080fd5b5061011a6102863660046114df565b610bb0565b34801561029757600080fd5b5061011a60025481565b3480156102ad57600080fd5b506102c16102bc36600461145a565b610c10565b6040516101249190611828565b3480156102da57600080fd5b506102ee6102e936600461145a565b610eb7565b60405161012492919061183b565b61018061030a36600461145a565b611196565b60056020526000908152604090208054819061032a906118e8565b80601f0160208091040260200160405190810160405280929190818152602001828054610356906118e8565b80156103a35780601f10610378576101008083540402835291602001916103a3565b820191906000526020600020905b81548152906001019060200180831161038657829003601f168201915b5050505050908060010180546103b8906118e8565b80601f01602080910402602001604051908101604052809291908181526020018280546103e4906118e8565b80156104315780601f1061040657610100808354040283529160200191610431565b820191906000526020600020905b81548152906001019060200180831161041457829003601f168201915b505050505090806002018054610446906118e8565b80601f0160208091040260200160405190810160405280929190818152602001828054610472906118e8565b80156104bf5780601f10610494576101008083540402835291602001916104bf565b820191906000526020600020905b8154815290600101906020018083116104a257829003601f168201915b5050505050908060030180546104d4906118e8565b80601f0160208091040260200160405190810160405280929190818152602001828054610500906118e8565b801561054d5780601f106105225761010080835404028352916020019161054d565b820191906000526020600020905b81548152906001019060200180831161053057829003601f168201915b50505050600483015460058401546006909401549293909290915060ff1687565b60025460015461057e90426118a5565b11156105cd57426001554780156105cb576003546040516001600160a01b039091169082156108fc029083906000818181858888f193505050501580156105c9573d6000803e3d6000fd5b505b505b5050565b60006060600254600154426105e691906118a5565b1191509250929050565b600081116106585760405162461bcd60e51b815260206004820152602a60248201527f54617267657420616d6f756e742073686f756c642062652067726561746572206044820152693a3430b7103d32b9379760b11b60648201526084015b60405180910390fd5b60008560405160200161066b91906116c8565b60408051601f19818403018152918152815160209283012060008181526006909352912054909150156106f45760405162461bcd60e51b815260206004820152602b60248201527f43616d706169676e2077697468207468652073616d65206e616d6520616c726560448201526a30b23c9032bc34b9ba399760a91b606482015260840161064f565b600480546000838152600660205260408120829055909182916107168361191d565b909155505060008181526005602090815260409091208851909161073e9183918b01906112e5565b50865161075490600183019060208a01906112e5565b50855161076a90600283019060208901906112e5565b50845161078090600383019060208801906112e5565b506004810184905560068101805460ff1916600117905560405182907f2170fee8e65b01596ec56f4b4df98e903e2baf55bb74a163480d31de5ce83025906107cb908b9088906117cf565b60405180910390a25050505050505050565b6060600060045467ffffffffffffffff81111561080a57634e487b7160e01b600052604160045260246000fd5b60405190808252806020026020018201604052801561084357816020015b610830611369565b8152602001906001900390816108285790505b50905060005b600454811015610b225760008181526005602052604090206006015460ff1615610b105760008181526005602052604090819020815160c08101909252805490919081908390610898906118e8565b80601f01602080910402602001604051908101604052809291908181526020018280546108c4906118e8565b80156109115780601f106108e657610100808354040283529160200191610911565b820191906000526020600020905b8154815290600101906020018083116108f457829003601f168201915b5050505050815260200182600101805461092a906118e8565b80601f0160208091040260200160405190810160405280929190818152602001828054610956906118e8565b80156109a35780601f10610978576101008083540402835291602001916109a3565b820191906000526020600020905b81548152906001019060200180831161098657829003601f168201915b505050505081526020018260020180546109bc906118e8565b80601f01602080910402602001604051908101604052809291908181526020018280546109e8906118e8565b8015610a355780601f10610a0a57610100808354040283529160200191610a35565b820191906000526020600020905b815481529060010190602001808311610a1857829003601f168201915b50505050508152602001826003018054610a4e906118e8565b80601f0160208091040260200160405190810160405280929190818152602001828054610a7a906118e8565b8015610ac75780601f10610a9c57610100808354040283529160200191610ac7565b820191906000526020600020905b815481529060010190602001808311610aaa57829003601f168201915b50505050508152602001826004015481526020018260050154815250838381518110610b0357634e487b7160e01b600052603260045260246000fd5b6020026020010181905250505b80610b1a8161191d565b915050610849565b50919050565b6000805460408051633fabe5a360e21b8152905183926001600160a01b03169163feaf968c9160048083019260a0929190829003018186803b158015610b6d57600080fd5b505afa158015610b81573d6000803e3d6000fd5b505050506040513d601f19601f82011682018060405250810190610ba591906115ca565b509195945050505050565b60008082604051602001610bc491906116c8565b60408051601f1981840301815291815281516020928301206000818152600690935291205490915080610c095760405162461bcd60e51b815260040161064f906117f1565b9392505050565b610c18611369565b6000828152600560205260409020600681015460ff16610c4a5760405162461bcd60e51b815260040161064f906117f1565b6040518060c00160405280826000018054610c64906118e8565b80601f0160208091040260200160405190810160405280929190818152602001828054610c90906118e8565b8015610cdd5780601f10610cb257610100808354040283529160200191610cdd565b820191906000526020600020905b815481529060010190602001808311610cc057829003601f168201915b50505050508152602001826001018054610cf6906118e8565b80601f0160208091040260200160405190810160405280929190818152602001828054610d22906118e8565b8015610d6f5780601f10610d4457610100808354040283529160200191610d6f565b820191906000526020600020905b815481529060010190602001808311610d5257829003601f168201915b50505050508152602001826002018054610d88906118e8565b80601f0160208091040260200160405190810160405280929190818152602001828054610db4906118e8565b8015610e015780601f10610dd657610100808354040283529160200191610e01565b820191906000526020600020905b815481529060010190602001808311610de457829003601f168201915b50505050508152602001826003018054610e1a906118e8565b80601f0160208091040260200160405190810160405280929190818152602001828054610e46906118e8565b8015610e935780601f10610e6857610100808354040283529160200191610e93565b820191906000526020600020905b815481529060010190602001808311610e7657829003601f168201915b50505050508152602001826004015481526020018260050154815250915050919050565b610ebf611369565b6000828152600560205260408120600681015460ff16610ef15760405162461bcd60e51b815260040161064f906117f1565b6000610efb610b28565b90506000670de0b6b3a7640000836005015483610f189190611886565b610f229190611866565b90506040518060c00160405280846000018054610f3e906118e8565b80601f0160208091040260200160405190810160405280929190818152602001828054610f6a906118e8565b8015610fb75780601f10610f8c57610100808354040283529160200191610fb7565b820191906000526020600020905b815481529060010190602001808311610f9a57829003601f168201915b50505050508152602001846001018054610fd0906118e8565b80601f0160208091040260200160405190810160405280929190818152602001828054610ffc906118e8565b80156110495780601f1061101e57610100808354040283529160200191611049565b820191906000526020600020905b81548152906001019060200180831161102c57829003601f168201915b50505050508152602001846002018054611062906118e8565b80601f016020809104026020016040519081016040528092919081815260200182805461108e906118e8565b80156110db5780601f106110b0576101008083540402835291602001916110db565b820191906000526020600020905b8154815290600101906020018083116110be57829003601f168201915b505050505081526020018460030180546110f4906118e8565b80601f0160208091040260200160405190810160405280929190818152602001828054611120906118e8565b801561116d5780601f106111425761010080835404028352916020019161116d565b820191906000526020600020905b81548152906001019060200180831161115057829003601f168201915b505050505081526020018460040154815260200184600501548152508194509450505050915091565b6000818152600560205260409020600681015460ff166111c85760405162461bcd60e51b815260040161064f906117f1565b6000341161122d5760405162461bcd60e51b815260206004820152602c60248201527f446f6e6174696f6e20616d6f756e742073686f756c642062652067726561746560448201526b39103a3430b7103d32b9379760a11b606482015260840161064f565b34816005016000828254611241919061184e565b909155505033600090815260088201602052604090205461128457600781018054600181018255600091825260209091200180546001600160a01b031916331790555b336000908152600882016020526040812080543492906112a590849061184e565b9091555050604051348152339083907f0b5b4c52969ff7329ecf7ee536409fda87812b15a8622bc6e8cdeab3aee14a269060200160405180910390a35050565b8280546112f1906118e8565b90600052602060002090601f0160209004810192826113135760008555611359565b82601f1061132c57805160ff1916838001178555611359565b82800160010185558215611359579182015b8281111561135957825182559160200191906001019061133e565b5061136592915061139f565b5090565b6040518060c001604052806060815260200160608152602001606081526020016060815260200160008152602001600081525090565b5b8082111561136557600081556001016113a0565b600082601f8301126113c4578081fd5b813567ffffffffffffffff808211156113df576113df61194e565b604051601f8301601f19908116603f011681019082821181831017156114075761140761194e565b8160405283815286602085880101111561141f578485fd5b8360208701602083013792830160200193909352509392505050565b805169ffffffffffffffffffff8116811461145557600080fd5b919050565b60006020828403121561146b578081fd5b5035919050565b60008060208385031215611484578081fd5b823567ffffffffffffffff8082111561149b578283fd5b818501915085601f8301126114ae578283fd5b8135818111156114bc578384fd5b8660208285010111156114cd578384fd5b60209290920196919550909350505050565b6000602082840312156114f0578081fd5b813567ffffffffffffffff811115611506578182fd5b611512848285016113b4565b949350505050565b600080600080600060a08688031215611531578081fd5b853567ffffffffffffffff80821115611548578283fd5b61155489838a016113b4565b96506020880135915080821115611569578283fd5b61157589838a016113b4565b9550604088013591508082111561158a578283fd5b61159689838a016113b4565b945060608801359150808211156115ab578283fd5b506115b8888289016113b4565b95989497509295608001359392505050565b600080600080600060a086880312156115e1578081fd5b6115ea8661143b565b945060208601519350604086015192506060860151915061160d6080870161143b565b90509295509295909350565b600081518084526116318160208601602086016118bc565b601f01601f19169290920160200192915050565b6000815160c0845261165a60c0850182611619565b9050602083015184820360208601526116738282611619565b9150506040830151848203604086015261168d8282611619565b915050606083015184820360608601526116a78282611619565b9150506080830151608085015260a083015160a08501528091505092915050565b600082516116da8184602087016118bc565b9190910192915050565b6000602080830181845280855180835260408601915060408160051b8701019250838701855b8281101561173857603f19888603018452611726858351611645565b9450928501929085019060010161170a565b5092979650505050505050565b82151581526040602082015260006115126040830184611619565b60e08152600061177360e083018a611619565b8281036020840152611785818a611619565b905082810360408401526117998189611619565b905082810360608401526117ad8188611619565b6080840196909652505060a0810192909252151560c090910152949350505050565b6040815260006117e26040830185611619565b90508260208301529392505050565b60208082526018908201527f43616d706169676e20646f6573206e6f742065786973742e0000000000000000604082015260600190565b602081526000610c096020830184611645565b6040815260006117e26040830185611645565b6000821982111561186157611861611938565b500190565b60008261188157634e487b7160e01b81526012600452602481fd5b500490565b60008160001904831182151516156118a0576118a0611938565b500290565b6000828210156118b7576118b7611938565b500390565b60005b838110156118d75781810151838201526020016118bf565b838111156105c95750506000910152565b600181811c908216806118fc57607f821691505b60208210811415610b2257634e487b7160e01b600052602260045260246000fd5b600060001982141561193157611931611938565b5060010190565b634e487b7160e01b600052601160045260246000fd5b634e487b7160e01b600052604160045260246000fdfea2646970667358221220b2d9f566e6a0b1f5d224bc62b5e4b22e77bcd72a500bc889eb6a344d8497e29b64736f6c63430008040033",
  "linkReferences": {},
  "deployedLinkReferences": {}
}