{
  "_format": "hh-sol-artifact-1",
  "contractName": "CarbonFootPrint",
  "sourceName": "contracts/CarbonFootPrint.sol",
  "abi": [
    {
      "anonymous": false,
      "inputs": [
        {
          "indexed": true,
          "internalType": "uint256",
          "name": "projectId",
          "type": "uint256"
        },
        {
          "indexed": false,
          "internalType": "uint256",
          "name": "carbonOffsetRemoved",
          "type": "uint256"
        }
      ],
      "name": "CarbonOffsetRemoved",
      "type": "event"
    },
    {
      "anonymous": false,
      "inputs": [
        {
          "indexed": true,
          "internalType": "uint256",
          "name": "projectId",
          "type": "uint256"
        },
        {
          "indexed": true,
          "internalType": "address",
          "name": "doner",
          "type": "address"
        },
        {
          "indexed": false,
          "internalType": "uint256",
          "name": "amount",
          "type": "uint256"
        }
      ],
      "name": "DonationReceived",
      "type": "event"
    },
    {
      "anonymous": false,
      "inputs": [
        {
          "indexed": true,
          "internalType": "uint256",
          "name": "projectId",
          "type": "uint256"
        },
        {
          "indexed": false,
          "internalType": "string",
          "name": "name",
          "type": "string"
        },
        {
          "indexed": false,
          "internalType": "uint256",
          "name": "targetCarbonOffset",
          "type": "uint256"
        },
        {
          "indexed": false,
          "internalType": "uint256",
          "name": "deadline",
          "type": "uint256"
        }
      ],
      "name": "ProjectCreated",
      "type": "event"
    },
    {
      "inputs": [
        {
          "internalType": "uint256",
          "name": "_projectId",
          "type": "uint256"
        }
      ],
      "name": "carbonOffsetRemoved",
      "outputs": [
        {
          "internalType": "uint256",
          "name": "",
          "type": "uint256"
        }
      ],
      "stateMutability": "view",
      "type": "function"
    },
    {
      "inputs": [
        {
          "internalType": "string",
          "name": "_name",
          "type": "string"
        },
        {
          "internalType": "string",
          "name": "_country",
          "type": "string"
        },
        {
          "internalType": "string",
          "name": "_description",
          "type": "string"
        },
        {
          "internalType": "string",
          "name": "_latitude",
          "type": "string"
        },
        {
          "internalType": "string",
          "name": "_longitude",
          "type": "string"
        },
        {
          "internalType": "uint256",
          "name": "_targetCarbonOffset",
          "type": "uint256"
        },
        {
          "internalType": "uint256",
          "name": "_deadline",
          "type": "uint256"
        },
        {
          "internalType": "string",
          "name": "_imageCID",
          "type": "string"
        }
      ],
      "name": "createProject",
      "outputs": [],
      "stateMutability": "nonpayable",
      "type": "function"
    },
    {
      "inputs": [
        {
          "internalType": "uint256",
          "name": "_projectId",
          "type": "uint256"
        }
      ],
      "name": "donate",
      "outputs": [],
      "stateMutability": "payable",
      "type": "function"
    },
    {
      "inputs": [],
      "name": "getAllProjects",
      "outputs": [
        {
          "components": [
            {
              "internalType": "string",
              "name": "name",
              "type": "string"
            },
            {
              "internalType": "string",
              "name": "country",
              "type": "string"
            },
            {
              "internalType": "string",
              "name": "description",
              "type": "string"
            },
            {
              "internalType": "string",
              "name": "latitude",
              "type": "string"
            },
            {
              "internalType": "string",
              "name": "longitude",
              "type": "string"
            },
            {
              "internalType": "uint256",
              "name": "targetCarbonOffset",
              "type": "uint256"
            },
            {
              "internalType": "uint256",
              "name": "carbonOffsetRemoved",
              "type": "uint256"
            },
            {
              "internalType": "uint256",
              "name": "deadline",
              "type": "uint256"
            },
            {
              "internalType": "uint256",
              "name": "totalDonationsReceived",
              "type": "uint256"
            },
            {
              "internalType": "string",
              "name": "imageCID",
              "type": "string"
            }
          ],
          "internalType": "struct CarbonFootPrint.ProjectDetails[]",
          "name": "",
          "type": "tuple[]"
        }
      ],
      "stateMutability": "view",
      "type": "function"
    },
    {
      "inputs": [
        {
          "internalType": "uint256",
          "name": "_projectId",
          "type": "uint256"
        }
      ],
      "name": "getProjectById",
      "outputs": [
        {
          "internalType": "string",
          "name": "",
          "type": "string"
        },
        {
          "internalType": "string",
          "name": "",
          "type": "string"
        },
        {
          "internalType": "string",
          "name": "",
          "type": "string"
        },
        {
          "internalType": "string",
          "name": "",
          "type": "string"
        },
        {
          "internalType": "string",
          "name": "",
          "type": "string"
        },
        {
          "internalType": "uint256",
          "name": "",
          "type": "uint256"
        },
        {
          "internalType": "uint256",
          "name": "",
          "type": "uint256"
        },
        {
          "internalType": "bool",
          "name": "",
          "type": "bool"
        },
        {
          "internalType": "address[]",
          "name": "",
          "type": "address[]"
        },
        {
          "internalType": "string",
          "name": "",
          "type": "string"
        }
      ],
      "stateMutability": "view",
      "type": "function"
    },
    {
      "inputs": [
        {
          "internalType": "string",
          "name": "_name",
          "type": "string"
        }
      ],
      "name": "getProjectIdByName",
      "outputs": [
        {
          "internalType": "uint256",
          "name": "",
          "type": "uint256"
        }
      ],
      "stateMutability": "view",
      "type": "function"
    },
    {
      "inputs": [
        {
          "internalType": "bytes32",
          "name": "",
          "type": "bytes32"
        }
      ],
      "name": "projectIdByName",
      "outputs": [
        {
          "internalType": "uint256",
          "name": "",
          "type": "uint256"
        }
      ],
      "stateMutability": "view",
      "type": "function"
    },
    {
      "inputs": [
        {
          "internalType": "uint256",
          "name": "",
          "type": "uint256"
        }
      ],
      "name": "projects",
      "outputs": [
        {
          "internalType": "string",
          "name": "name",
          "type": "string"
        },
        {
          "internalType": "string",
          "name": "country",
          "type": "string"
        },
        {
          "internalType": "string",
          "name": "description",
          "type": "string"
        },
        {
          "internalType": "string",
          "name": "latitude",
          "type": "string"
        },
        {
          "internalType": "string",
          "name": "longitude",
          "type": "string"
        },
        {
          "internalType": "uint256",
          "name": "targetCarbonOffset",
          "type": "uint256"
        },
        {
          "internalType": "uint256",
          "name": "carbonOffsetRemoved",
          "type": "uint256"
        },
        {
          "internalType": "uint256",
          "name": "deadline",
          "type": "uint256"
        },
        {
          "internalType": "uint256",
          "name": "totalDonationsReceived",
          "type": "uint256"
        },
        {
          "internalType": "bool",
          "name": "exists",
          "type": "bool"
        },
        {
          "internalType": "string",
          "name": "imageCID",
          "type": "string"
        }
      ],
      "stateMutability": "view",
      "type": "function"
    },
    {
      "inputs": [],
      "name": "totalProjectsCreated",
      "outputs": [
        {
          "internalType": "uint256",
          "name": "",
          "type": "uint256"
        }
      ],
      "stateMutability": "view",
      "type": "function"
    }
  ],
  "bytecode": "0x608060405234801561001057600080fd5b50611ba0806100206000396000f3fe6080604052600436106100865760003560e01c80639d29d2dd116100595780639d29d2dd1461013e5780639f109a571461015e578063bee5cdca14610180578063eafbd8ee146101b6578063f14faf6f146101d657600080fd5b8063107046bd1461008b5780631c91ecb6146100cb578063594349c8146100ef57806380d038291461011c575b600080fd5b34801561009757600080fd5b506100ab6100a63660046115a4565b6101e9565b6040516100c29b9a99989796959493929190611941565b60405180910390f35b3480156100d757600080fd5b506100e160005481565b6040519081526020016100c2565b3480156100fb57600080fd5b506100e161010a3660046115a4565b60026020526000908152604090205481565b34801561012857600080fd5b50610131610578565b6040516100c29190611742565b34801561014a57600080fd5b506100e16101593660046115a4565b610a5e565b34801561016a57600080fd5b5061017e6101793660046115f7565b610aa3565b005b34801561018c57600080fd5b506101a061019b3660046115a4565b610d14565b6040516100c29a99989796959493929190611860565b3480156101c257600080fd5b506100e16101d13660046115bc565b611159565b61017e6101e43660046115a4565b6111b9565b60016020526000908152604090208054819061020490611ae8565b80601f016020809104026020016040519081016040528092919081815260200182805461023090611ae8565b801561027d5780601f106102525761010080835404028352916020019161027d565b820191906000526020600020905b81548152906001019060200180831161026057829003601f168201915b50505050509080600101805461029290611ae8565b80601f01602080910402602001604051908101604052809291908181526020018280546102be90611ae8565b801561030b5780601f106102e05761010080835404028352916020019161030b565b820191906000526020600020905b8154815290600101906020018083116102ee57829003601f168201915b50505050509080600201805461032090611ae8565b80601f016020809104026020016040519081016040528092919081815260200182805461034c90611ae8565b80156103995780601f1061036e57610100808354040283529160200191610399565b820191906000526020600020905b81548152906001019060200180831161037c57829003601f168201915b5050505050908060030180546103ae90611ae8565b80601f01602080910402602001604051908101604052809291908181526020018280546103da90611ae8565b80156104275780601f106103fc57610100808354040283529160200191610427565b820191906000526020600020905b81548152906001019060200180831161040a57829003601f168201915b50505050509080600401805461043c90611ae8565b80601f016020809104026020016040519081016040528092919081815260200182805461046890611ae8565b80156104b55780601f1061048a576101008083540402835291602001916104b5565b820191906000526020600020905b81548152906001019060200180831161049857829003601f168201915b5050505050908060050154908060060154908060070154908060080154908060090160009054906101000a900460ff169080600c0180546104f590611ae8565b80601f016020809104026020016040519081016040528092919081815260200182805461052190611ae8565b801561056e5780601f106105435761010080835404028352916020019161056e565b820191906000526020600020905b81548152906001019060200180831161055157829003601f168201915b505050505090508b565b60606000805467ffffffffffffffff8111156105a457634e487b7160e01b600052604160045260246000fd5b60405190808252806020026020018201604052801561062b57816020015b610618604051806101400160405280606081526020016060815260200160608152602001606081526020016060815260200160008152602001600081526020016000815260200160008152602001606081525090565b8152602001906001900390816105c25790505b5090506000805b600054811015610a565760008181526001602052604090206009015460ff1615610a4457600081815260016020526040808220815161014081019092528054909291908190849061068290611ae8565b80601f01602080910402602001604051908101604052809291908181526020018280546106ae90611ae8565b80156106fb5780601f106106d0576101008083540402835291602001916106fb565b820191906000526020600020905b8154815290600101906020018083116106de57829003601f168201915b5050505050815260200183600101805461071490611ae8565b80601f016020809104026020016040519081016040528092919081815260200182805461074090611ae8565b801561078d5780601f106107625761010080835404028352916020019161078d565b820191906000526020600020905b81548152906001019060200180831161077057829003601f168201915b505050505081526020018360020180546107a690611ae8565b80601f01602080910402602001604051908101604052809291908181526020018280546107d290611ae8565b801561081f5780601f106107f45761010080835404028352916020019161081f565b820191906000526020600020905b81548152906001019060200180831161080257829003601f168201915b5050505050815260200183600301805461083890611ae8565b80601f016020809104026020016040519081016040528092919081815260200182805461086490611ae8565b80156108b15780601f10610886576101008083540402835291602001916108b1565b820191906000526020600020905b81548152906001019060200180831161089457829003601f168201915b505050505081526020018360040180546108ca90611ae8565b80601f01602080910402602001604051908101604052809291908181526020018280546108f690611ae8565b80156109435780601f1061091857610100808354040283529160200191610943565b820191906000526020600020905b81548152906001019060200180831161092657829003601f168201915b505050505081526020018360050154815260200183600601548152602001836007015481526020018360080154815260200183600c01805461098490611ae8565b80601f01602080910402602001604051908101604052809291908181526020018280546109b090611ae8565b80156109fd5780601f106109d2576101008083540402835291602001916109fd565b820191906000526020600020905b8154815290600101906020018083116109e057829003601f168201915b5050505050815250905080858581518110610a2857634e487b7160e01b600052603260045260246000fd5b60200260200101819052508380610a3e90611b23565b94505050505b80610a4e81611b23565b915050610632565b509092915050565b6000818152600160205260408120600981015460ff16610a995760405162461bcd60e51b8152600401610a9090611a13565b60405180910390fd5b6006015492915050565b60008311610b0d5760405162461bcd60e51b815260206004820152603160248201527f54617267657420636172626f6e206f66667365742073686f756c6420626520676044820152703932b0ba32b9103a3430b7103d32b9379760791b6064820152608401610a90565b428211610b5c5760405162461bcd60e51b815260206004820152601d60248201527f446561646c696e652073686f756c6420626520696e206675747572652e0000006044820152606401610a90565b600088604051602001610b6f9190611726565b60408051601f1981840301815291815281516020928301206000818152600290935291205490915015610bf75760405162461bcd60e51b815260206004820152602a60248201527f50726f6a6563742077697468207468652073616d65206e616d6520616c726561604482015269323c9032bc34b9ba399760b11b6064820152608401610a90565b6000805482825260026020526040822081905590819080610c1783611b23565b909155505060008181526001602090815260409091208b519091610c3f9183918e0190611484565b508951610c5590600183019060208d0190611484565b508851610c6b90600283019060208c0190611484565b508751610c8190600383019060208b0190611484565b508651610c9790600483019060208a0190611484565b50600581018690556007810185905560098101805460ff191660011790558351610cca90600c8301906020870190611484565b50817f6ad8e25e78a676033392e940160acc1fa955f929f88d380f5fd2d2f5d9ce9e208c8888604051610cff939291906119ee565b60405180910390a25050505050505050505050565b6000818152600160205260408120600981015460609283928392839283929091829182918591829160ff16610d5b5760405162461bcd60e51b8152600401610a9090611a13565b8060000181600101826002018360030184600401856005015486600601548760090160009054906101000a900460ff1688600a0189600c01898054610d9f90611ae8565b80601f0160208091040260200160405190810160405280929190818152602001828054610dcb90611ae8565b8015610e185780601f10610ded57610100808354040283529160200191610e18565b820191906000526020600020905b815481529060010190602001808311610dfb57829003601f168201915b50505050509950888054610e2b90611ae8565b80601f0160208091040260200160405190810160405280929190818152602001828054610e5790611ae8565b8015610ea45780601f10610e7957610100808354040283529160200191610ea4565b820191906000526020600020905b815481529060010190602001808311610e8757829003601f168201915b50505050509850878054610eb790611ae8565b80601f0160208091040260200160405190810160405280929190818152602001828054610ee390611ae8565b8015610f305780601f10610f0557610100808354040283529160200191610f30565b820191906000526020600020905b815481529060010190602001808311610f1357829003601f168201915b50505050509750868054610f4390611ae8565b80601f0160208091040260200160405190810160405280929190818152602001828054610f6f90611ae8565b8015610fbc5780601f10610f9157610100808354040283529160200191610fbc565b820191906000526020600020905b815481529060010190602001808311610f9f57829003601f168201915b50505050509650858054610fcf90611ae8565b80601f0160208091040260200160405190810160405280929190818152602001828054610ffb90611ae8565b80156110485780601f1061101d57610100808354040283529160200191611048565b820191906000526020600020905b81548152906001019060200180831161102b57829003601f168201915b50505050509550818054806020026020016040519081016040528092919081815260200182805480156110a457602002820191906000526020600020905b81546001600160a01b03168152600190910190602001808311611086575b505050505091508080546110b790611ae8565b80601f01602080910402602001604051908101604052809291908181526020018280546110e390611ae8565b80156111305780601f1061110557610100808354040283529160200191611130565b820191906000526020600020905b81548152906001019060200180831161111357829003601f168201915b505050505090509a509a509a509a509a509a509a509a509a509a50509193959799509193959799565b6000808260405160200161116d9190611726565b60408051601f19818403018152918152815160209283012060008181526002909352912054909150806111b25760405162461bcd60e51b8152600401610a9090611a13565b9392505050565b6000818152600160205260409020600981015460ff166111eb5760405162461bcd60e51b8152600401610a9090611a13565b806007015442111561123f5760405162461bcd60e51b815260206004820152601c60248201527f50726f6a65637420646561646c696e6520686173207061737365642e000000006044820152606401610a90565b80600501548160060154106112ad5760405162461bcd60e51b815260206004820152602e60248201527f54617267657420636172626f6e206f66667365742068617320616c726561647960448201526d103132b2b7103932b0b1b432b21760911b6064820152608401610a90565b600034116113125760405162461bcd60e51b815260206004820152602c60248201527f446f6e6174696f6e20616d6f756e742073686f756c642062652067726561746560448201526b39103a3430b7103d32b9379760a11b6064820152608401610a90565b6000816006015482600501546113289190611aa1565b9050600061133d662386f26fc1000034611a62565b9050348282111561135f5782915061135c82662386f26fc10000611a82565b90505b818460060160008282546113739190611a4a565b925050819055508084600801600082825461138e9190611a4a565b9091555050336000908152600b850160205260409020546113d157600a84018054600181018255600091825260209091200180546001600160a01b031916331790555b336000908152600b85016020526040812080548392906113f2908490611a4a565b909155505060058401546006850154141561144657847f9e1603b5dcb6cecaa1b1eff5e13f4627f2fd2c1208eaf66c63691f6003c46beb856006015460405161143d91815260200190565b60405180910390a25b604051818152339086907f0b5b4c52969ff7329ecf7ee536409fda87812b15a8622bc6e8cdeab3aee14a269060200160405180910390a35050505050565b82805461149090611ae8565b90600052602060002090601f0160209004810192826114b257600085556114f8565b82601f106114cb57805160ff19168380011785556114f8565b828001600101855582156114f8579182015b828111156114f85782518255916020019190600101906114dd565b50611504929150611508565b5090565b5b808211156115045760008155600101611509565b600082601f83011261152d578081fd5b813567ffffffffffffffff8082111561154857611548611b54565b604051601f8301601f19908116603f0116810190828211818310171561157057611570611b54565b81604052838152866020858801011115611588578485fd5b8360208701602083013792830160200193909352509392505050565b6000602082840312156115b5578081fd5b5035919050565b6000602082840312156115cd578081fd5b813567ffffffffffffffff8111156115e3578182fd5b6115ef8482850161151d565b949350505050565b600080600080600080600080610100898b031215611613578384fd5b883567ffffffffffffffff8082111561162a578586fd5b6116368c838d0161151d565b995060208b013591508082111561164b578586fd5b6116578c838d0161151d565b985060408b013591508082111561166c578586fd5b6116788c838d0161151d565b975060608b013591508082111561168d578586fd5b6116998c838d0161151d565b965060808b01359150808211156116ae578586fd5b6116ba8c838d0161151d565b955060a08b0135945060c08b0135935060e08b01359150808211156116dd578283fd5b506116ea8b828c0161151d565b9150509295985092959890939650565b60008151808452611712816020860160208601611ab8565b601f01601f19169290920160200192915050565b60008251611738818460208701611ab8565b9190910192915050565b60006020808301818452808551808352604092508286019150828160051b870101848801865b8381101561185257603f198984030185528151610140815181865261178f828701826116fa565b915050888201518582038a8701526117a782826116fa565b91505087820151858203898701526117bf82826116fa565b915050606080830151868303828801526117d983826116fa565b92505050608080830151868303828801526117f483826116fa565b60a0858101519089015260c0808601519089015260e0808601519089015261010080860151908901526101209485015188820395890195909552925061183e9150829050836116fa565b968901969450505090860190600101611768565b509098975050505050505050565b60006101408083526118748184018e6116fa565b9050602083820381850152611889828e6116fa565b9150838203604085015261189d828d6116fa565b915083820360608501526118b1828c6116fa565b915083820360808501526118c5828b6116fa565b60a085018a905260c0850189905287151560e08601528481036101008601528651808252828801935090820190845b818110156119195784516001600160a01b0316835293830193918301916001016118f4565b505084810361012086015261192e81876116fa565b9f9e505050505050505050505050505050565b60006101608083526119558184018f6116fa565b90508281036020840152611969818e6116fa565b9050828103604084015261197d818d6116fa565b90508281036060840152611991818c6116fa565b905082810360808401526119a5818b6116fa565b90508860a08401528760c08401528660e0840152856101008401528415156101208401528281036101408401526119dc81856116fa565b9e9d5050505050505050505050505050565b606081526000611a0160608301866116fa565b60208301949094525060400152919050565b60208082526017908201527f50726f6a65637420646f6573206e6f742065786973742e000000000000000000604082015260600190565b60008219821115611a5d57611a5d611b3e565b500190565b600082611a7d57634e487b7160e01b81526012600452602481fd5b500490565b6000816000190483118215151615611a9c57611a9c611b3e565b500290565b600082821015611ab357611ab3611b3e565b500390565b60005b83811015611ad3578181015183820152602001611abb565b83811115611ae2576000848401525b50505050565b600181811c90821680611afc57607f821691505b60208210811415611b1d57634e487b7160e01b600052602260045260246000fd5b50919050565b6000600019821415611b3757611b37611b3e565b5060010190565b634e487b7160e01b600052601160045260246000fd5b634e487b7160e01b600052604160045260246000fdfea2646970667358221220541d1f6c8e8ceef9657eecc8c3397074fd86d9602d9e73d70b5874d6801cb5f964736f6c63430008040033",
  "linkReferences": {},
  "deployedLinkReferences": {}
}