{
  "_format": "hh-sol-artifact-1",
  "contractName": "News",
  "sourceName": "contracts/News.sol",
  "abi": [
    {
      "inputs": [
        {
          "internalType": "address",
          "name": "_oracle",
          "type": "address"
        },
        {
          "internalType": "bytes32",
          "name": "_jobId",
          "type": "bytes32"
        },
        {
          "internalType": "uint256",
          "name": "_oracleFee",
          "type": "uint256"
        }
      ],
      "stateMutability": "nonpayable",
      "type": "constructor"
    },
    {
      "anonymous": false,
      "inputs": [
        {
          "indexed": true,
          "internalType": "bytes32",
          "name": "id",
          "type": "bytes32"
        }
      ],
      "name": "ChainlinkCancelled",
      "type": "event"
    },
    {
      "anonymous": false,
      "inputs": [
        {
          "indexed": true,
          "internalType": "bytes32",
          "name": "id",
          "type": "bytes32"
        }
      ],
      "name": "ChainlinkFulfilled",
      "type": "event"
    },
    {
      "anonymous": false,
      "inputs": [
        {
          "indexed": true,
          "internalType": "bytes32",
          "name": "id",
          "type": "bytes32"
        }
      ],
      "name": "ChainlinkRequested",
      "type": "event"
    },
    {
      "anonymous": false,
      "inputs": [
        {
          "indexed": false,
          "internalType": "string",
          "name": "news",
          "type": "string"
        }
      ],
      "name": "WarNewsUpdated",
      "type": "event"
    },
    {
      "inputs": [
        {
          "internalType": "bytes32",
          "name": "_requestId",
          "type": "bytes32"
        },
        {
          "internalType": "string",
          "name": "_warNews",
          "type": "string"
        }
      ],
      "name": "fulfill",
      "outputs": [],
      "stateMutability": "nonpayable",
      "type": "function"
    },
    {
      "inputs": [],
      "name": "requestWarNewsData",
      "outputs": [
        {
          "internalType": "bytes32",
          "name": "requestId",
          "type": "bytes32"
        }
      ],
      "stateMutability": "nonpayable",
      "type": "function"
    },
    {
      "inputs": [],
      "name": "warNews",
      "outputs": [
        {
          "internalType": "string",
          "name": "",
          "type": "string"
        }
      ],
      "stateMutability": "view",
      "type": "function"
    }
  ],
  "bytecode": "0x608060405260016004553480156200001657600080fd5b506040516200103738038062001037833981016040819052620000399162000162565b6200004362000070565b600680546001600160a01b0319166001600160a01b03949094169390931790925560075560085562000199565b6200011f73c89bd4e1632d3a43cb03aaad5262cbe4038bc5716001600160a01b03166338cc48316040518163ffffffff1660e01b815260040160206040518083038186803b158015620000c257600080fd5b505afa158015620000d7573d6000803e3d6000fd5b505050506040513d601f19601f82011682018060405250810190620000fd91906200013e565b600280546001600160a01b0319166001600160a01b0392909216919091179055565b565b80516001600160a01b03811681146200013957600080fd5b919050565b60006020828403121562000150578081fd5b6200015b8262000121565b9392505050565b60008060006060848603121562000177578182fd5b620001828462000121565b925060208401519150604084015190509250925092565b610e8e80620001a96000396000f3fe608060405234801561001057600080fd5b50600436106100415760003560e01c806333586960146100465780633744199614610064578063e1543da814610079575b600080fd5b61004e61008f565b60405161005b9190610bc0565b60405180910390f35b610077610072366004610a30565b61011d565b005b61008161022f565b60405190815260200161005b565b6009805461009c90610db2565b80601f01602080910402602001604051908101604052809291908181526020018280546100c890610db2565b80156101155780601f106100ea57610100808354040283529160200191610115565b820191906000526020600020905b8154815290600101906020018083116100f857829003601f168201915b505050505081565b60008281526005602052604090205482906001600160a01b0316331461019b5760405162461bcd60e51b815260206004820152602860248201527f536f75726365206d75737420626520746865206f7261636c65206f6620746865604482015267081c995c5d595cdd60c21b60648201526084015b60405180910390fd5b60008181526005602052604080822080546001600160a01b03191690555182917f7cc135e0cebb02c3480ae5d74d377283180a2601f8f644edf7987b009316c63a91a281516101f190600990602085019061093c565b507ff92931ff541b043cba7ac366dfc3c19f43d49ecdc2f59c213b9b38c4dcb5174660096040516102229190610bd3565b60405180910390a1505050565b60008061024660075430633744199660e01b6102a9565b90506102886040518060400160405280600381526020016219d95d60ea1b815250604051806060016040528060258152602001610e34602591398391906102ce565b6006546008546102a3916001600160a01b03169083906102f1565b91505090565b6102b16109c0565b6102b96109c0565b6102c581868686610384565b95945050505050565b60808301516102dd90836103ca565b60808301516102ec90826103ca565b505050565b600454600090610302816001610c79565b600455835160408086015160808701515191516000936320214ca360e11b9361033a9386938493923092918a91600191602401610b31565b60408051601f198184030181529190526020810180516001600160e01b03166001600160e01b031990931692909217909152905061037a868386846103e1565b9695505050505050565b61038c6109c0565b61039c856080015161010061054e565b50508284526001600160a01b03821660208501526001600160e01b031981166040850152835b949350505050565b6103d782600383516105b9565b6102ec82826106ce565b6040516bffffffffffffffffffffffff193060601b1660208201526034810184905260009060540160408051808303601f1901815282825280516020918201206000818152600590925291812080546001600160a01b0319166001600160a01b038a1617905590925082917fb5e6e01e79f91267dc17b4e6314d5d4d03593d2ceee0fbb452b750bd70ea5af99190a2600254604051630200057560e51b81526001600160a01b0390911690634000aea0906104a490889087908790600401610b99565b602060405180830381600087803b1580156104be57600080fd5b505af11580156104d2573d6000803e3d6000fd5b505050506040513d601f19601f820116820180604052508101906104f69190610a10565b6103c25760405162461bcd60e51b815260206004820152602360248201527f756e61626c6520746f207472616e73666572416e6443616c6c20746f206f7261604482015262636c6560e81b6064820152608401610192565b60408051808201909152606081526000602082015261056e602083610de7565b156105965761057e602083610de7565b610589906020610d9b565b6105939083610c79565b91505b506020808301829052604080518085526000815283019091019052815b92915050565b60178167ffffffffffffffff16116105e4576105de8360e0600585901b1683176106fc565b50505050565b60ff8167ffffffffffffffff16116106225761060b836018611fe0600586901b16176106fc565b506105de8367ffffffffffffffff83166001610721565b61ffff8167ffffffffffffffff16116106615761064a836019611fe0600586901b16176106fc565b506105de8367ffffffffffffffff83166002610721565b63ffffffff8167ffffffffffffffff16116106a25761068b83601a611fe0600586901b16176106fc565b506105de8367ffffffffffffffff83166004610721565b6106b783601b611fe0600586901b16176106fc565b506105de8367ffffffffffffffff83166008610721565b6040805180820190915260608152600060208201526106f583846000015151848551610747565b9392505050565b6040805180820190915260608152600060208201526106f58384600001515184610831565b6040805180820190915260608152600060208201526103c284856000015151858561088d565b604080518082019091526060815260006020820152825182111561076a57600080fd5b60208501516107798386610c79565b11156107ac576107ac8561079c876020015187866107979190610c79565b61090e565b6107a7906002610d7c565b610925565b6000808651805187602083010193508088870111156107cb5787860182525b505050602084015b6020841061080b57805182526107ea602083610c79565b91506107f7602082610c79565b9050610804602085610d9b565b93506107d3565b51815160001960208690036101000a019081169019919091161790525083949350505050565b604080518082019091526060815260006020820152836020015183106108665761086684856020015160026107a79190610d7c565b835180516020858301018481535080851415610883576001810182525b5093949350505050565b60408051808201909152606081526000602082015260208501516108b18584610c79565b11156108c5576108c58561079c8685610c79565b600060016108d584610100610cd4565b6108df9190610d9b565b90508551838682010185831982511617815250805184870111156109035783860181525b509495945050505050565b60008183111561091f5750816105b3565b50919050565b8151610931838361054e565b506105de83826106ce565b82805461094890610db2565b90600052602060002090601f01602090048101928261096a57600085556109b0565b82601f1061098357805160ff19168380011785556109b0565b828001600101855582156109b0579182015b828111156109b0578251825591602001919060010190610995565b506109bc9291506109fb565b5090565b6040805160a0810182526000808252602080830182905282840182905260608084018390528451808601909552845283015290608082015290565b5b808211156109bc57600081556001016109fc565b600060208284031215610a21578081fd5b815180151581146106f5578182fd5b60008060408385031215610a42578081fd5b82359150602083013567ffffffffffffffff80821115610a60578283fd5b818501915085601f830112610a73578283fd5b813581811115610a8557610a85610e1d565b604051601f8201601f19908116603f01168101908382118183101715610aad57610aad610e1d565b81604052828152886020848701011115610ac5578586fd5b82602086016020830137856020848301015280955050505050509250929050565b60008151808452815b81811015610b0b57602081850181015186830182015201610aef565b81811115610b1c5782602083870101525b50601f01601f19169290920160200192915050565b6001600160a01b0389811682526020820189905260408201889052861660608201526001600160e01b03198516608082015260a0810184905260c0810183905261010060e08201819052600090610b8a83820185610ae6565b9b9a5050505050505050505050565b60018060a01b03841681528260208201526060604082015260006102c56060830184610ae6565b6020815260006106f56020830184610ae6565b6000602080835281845483600182811c915080831680610bf457607f831692505b858310811415610c1257634e487b7160e01b87526022600452602487fd5b878601838152602001818015610c2f5760018114610c4057610c6a565b60ff19861682528782019650610c6a565b60008b815260209020895b86811015610c6457815484820152908501908901610c4b565b83019750505b50949998505050505050505050565b60008219821115610c8c57610c8c610e07565b500190565b600181815b80851115610ccc578160001904821115610cb257610cb2610e07565b80851615610cbf57918102915b93841c9390800290610c96565b509250929050565b60006106f58383600082610cea575060016105b3565b81610cf7575060006105b3565b8160018114610d0d5760028114610d1757610d33565b60019150506105b3565b60ff841115610d2857610d28610e07565b50506001821b6105b3565b5060208310610133831016604e8410600b8410161715610d56575081810a6105b3565b610d608383610c91565b8060001904821115610d7457610d74610e07565b029392505050565b6000816000190483118215151615610d9657610d96610e07565b500290565b600082821015610dad57610dad610e07565b500390565b600181811c90821680610dc657607f821691505b6020821081141561091f57634e487b7160e01b600052602260045260246000fd5b600082610e0257634e487b7160e01b81526012600452602481fd5b500690565b634e487b7160e01b600052601160045260246000fd5b634e487b7160e01b600052604160045260246000fdfe68747470733a2f2f6170692e6e6577732d736572766963652e636f6d2f7761722d6e657773a26469706673582212208661ddb7ba23ce183f486c5bc6f447fb665f4362c4a8399b726a984e074d3c5264736f6c63430008040033",
  "linkReferences": {},
  "deployedLinkReferences": {}
}