{
  "_format": "hh-sol-artifact-1",
  "contractName": "WarNewsFeed",
  "sourceName": "contracts/News.sol",
  "abi": [
    {
      "inputs": [
        {
          "internalType": "address",
          "name": "_oracle",
          "type": "address"
        },
        {
          "internalType": "bytes32",
          "name": "_jobId",
          "type": "bytes32"
        },
        {
          "internalType": "uint256",
          "name": "_oracleFee",
          "type": "uint256"
        },
        {
          "internalType": "address",
          "name": "_vrfCoordinator",
          "type": "address"
        },
        {
          "internalType": "address",
          "name": "_linkToken",
          "type": "address"
        },
        {
          "internalType": "bytes32",
          "name": "_vrfKeyHash",
          "type": "bytes32"
        },
        {
          "internalType": "uint256",
          "name": "_vrfFee",
          "type": "uint256"
        }
      ],
      "stateMutability": "nonpayable",
      "type": "constructor"
    },
    {
      "anonymous": false,
      "inputs": [
        {
          "indexed": true,
          "internalType": "bytes32",
          "name": "id",
          "type": "bytes32"
        }
      ],
      "name": "ChainlinkCancelled",
      "type": "event"
    },
    {
      "anonymous": false,
      "inputs": [
        {
          "indexed": true,
          "internalType": "bytes32",
          "name": "id",
          "type": "bytes32"
        }
      ],
      "name": "ChainlinkFulfilled",
      "type": "event"
    },
    {
      "anonymous": false,
      "inputs": [
        {
          "indexed": true,
          "internalType": "bytes32",
          "name": "id",
          "type": "bytes32"
        }
      ],
      "name": "ChainlinkRequested",
      "type": "event"
    },
    {
      "anonymous": false,
      "inputs": [
        {
          "indexed": false,
          "internalType": "uint256",
          "name": "randomNumber",
          "type": "uint256"
        }
      ],
      "name": "RandomNumberReceived",
      "type": "event"
    },
    {
      "anonymous": false,
      "inputs": [
        {
          "indexed": false,
          "internalType": "bytes32",
          "name": "requestId",
          "type": "bytes32"
        }
      ],
      "name": "RandomNumberRequested",
      "type": "event"
    },
    {
      "anonymous": false,
      "inputs": [
        {
          "indexed": false,
          "internalType": "string",
          "name": "news",
          "type": "string"
        }
      ],
      "name": "WarNewsUpdated",
      "type": "event"
    },
    {
      "inputs": [
        {
          "internalType": "bytes32",
          "name": "_requestId",
          "type": "bytes32"
        },
        {
          "internalType": "string",
          "name": "_warNews",
          "type": "string"
        }
      ],
      "name": "fulfill",
      "outputs": [],
      "stateMutability": "nonpayable",
      "type": "function"
    },
    {
      "inputs": [],
      "name": "randomResult",
      "outputs": [
        {
          "internalType": "uint256",
          "name": "",
          "type": "uint256"
        }
      ],
      "stateMutability": "view",
      "type": "function"
    },
    {
      "inputs": [
        {
          "internalType": "bytes32",
          "name": "requestId",
          "type": "bytes32"
        },
        {
          "internalType": "uint256",
          "name": "randomness",
          "type": "uint256"
        }
      ],
      "name": "rawFulfillRandomness",
      "outputs": [],
      "stateMutability": "nonpayable",
      "type": "function"
    },
    {
      "inputs": [],
      "name": "requestRandomNumber",
      "outputs": [
        {
          "internalType": "bytes32",
          "name": "requestId",
          "type": "bytes32"
        }
      ],
      "stateMutability": "nonpayable",
      "type": "function"
    },
    {
      "inputs": [],
      "name": "requestWarNewsData",
      "outputs": [
        {
          "internalType": "bytes32",
          "name": "requestId",
          "type": "bytes32"
        }
      ],
      "stateMutability": "nonpayable",
      "type": "function"
    },
    {
      "inputs": [],
      "name": "warNews",
      "outputs": [
        {
          "internalType": "string",
          "name": "",
          "type": "string"
        }
      ],
      "stateMutability": "view",
      "type": "function"
    }
  ],
  "bytecode": "0x60c060405260016004553480156200001657600080fd5b50604051620014e6380380620014e6833981016040819052620000399162000187565b6001600160601b0319606085811b821660a05284901b166080526200005d62000095565b600780546001600160a01b0319166001600160a01b0398909816979097179096556008949094555050600955600a55600b55620001f7565b6200014473c89bd4e1632d3a43cb03aaad5262cbe4038bc5716001600160a01b03166338cc48316040518163ffffffff1660e01b815260040160206040518083038186803b158015620000e757600080fd5b505afa158015620000fc573d6000803e3d6000fd5b505050506040513d601f19601f8201168201806040525081019062000122919062000163565b600280546001600160a01b0319166001600160a01b0392909216919091179055565b565b80516001600160a01b03811681146200015e57600080fd5b919050565b60006020828403121562000175578081fd5b620001808262000146565b9392505050565b600080600080600080600060e0888a031215620001a2578283fd5b620001ad8862000146565b96506020880151955060408801519450620001cb6060890162000146565b9350620001db6080890162000146565b925060a0880151915060c0880151905092959891949750929550565b60805160601c60a05160601c6112b562000231600039600081816103b701526104df01526000818161029801526104b001526112b56000f3fe608060405234801561001057600080fd5b50600436106100625760003560e01c80633358696014610067578063374419961461008557806342619f661461009a5780638678a7b2146100b157806394985ddd146100b9578063e1543da8146100cc575b600080fd5b61006f6100d4565b60405161007c9190610fe7565b60405180910390f35b610098610093366004610e1e565b610162565b005b6100a3600c5481565b60405190815260200161007c565b6100a3610274565b6100986100c7366004610ed4565b6103ac565b6100a3610432565b600d80546100e1906111d9565b80601f016020809104026020016040519081016040528092919081815260200182805461010d906111d9565b801561015a5780601f1061012f5761010080835404028352916020019161015a565b820191906000526020600020905b81548152906001019060200180831161013d57829003601f168201915b505050505081565b60008281526005602052604090205482906001600160a01b031633146101e05760405162461bcd60e51b815260206004820152602860248201527f536f75726365206d75737420626520746865206f7261636c65206f6620746865604482015267081c995c5d595cdd60c21b60648201526084015b60405180910390fd5b60008181526005602052604080822080546001600160a01b03191690555182917f7cc135e0cebb02c3480ae5d74d377283180a2601f8f644edf7987b009316c63a91a2815161023690600d906020850190610d2a565b507ff92931ff541b043cba7ac366dfc3c19f43d49ecdc2f59c213b9b38c4dcb51746600d6040516102679190610ffa565b60405180910390a1505050565b600b546040516370a0823160e01b8152306004820152600091906001600160a01b037f000000000000000000000000000000000000000000000000000000000000000016906370a082319060240160206040518083038186803b1580156102da57600080fd5b505afa1580156102ee573d6000803e3d6000fd5b505050506040513d601f19601f820116820180604052508101906103129190610ef5565b10156103605760405162461bcd60e51b815260206004820152601a60248201527f4e6f7420656e6f756768204c494e4b20746f207061792066656500000000000060448201526064016101d7565b61036e600a54600b546104ac565b90507f1f528edfe7e851f18127c23c0853d428822bcefe59219e6afb0c6f25ffe9d510816040516103a191815260200190565b60405180910390a190565b336001600160a01b037f000000000000000000000000000000000000000000000000000000000000000016146104245760405162461bcd60e51b815260206004820152601f60248201527f4f6e6c7920565246436f6f7264696e61746f722063616e2066756c66696c6c0060448201526064016101d7565b61042e8282610621565b5050565b60008061044960085430633744199660e01b61065d565b905061048b6040518060400160405280600381526020016219d95d60ea1b81525060405180606001604052806025815260200161125b60259139839190610682565b6007546009546104a6916001600160a01b03169083906106a5565b91505090565b60007f00000000000000000000000000000000000000000000000000000000000000006001600160a01b0316634000aea07f00000000000000000000000000000000000000000000000000000000000000008486600060405160200161051c929190918252602082015260400190565b6040516020818303038152906040526040518463ffffffff1660e01b815260040161054993929190610fc0565b602060405180830381600087803b15801561056357600080fd5b505af1158015610577573d6000803e3d6000fd5b505050506040513d601f19601f8201168201806040525081019061059b9190610dfe565b506000838152600660205260408120546105ba90859083903090610738565b6000858152600660205260409020549091506105d79060016110a0565b6000858152600660205260409020556106178482604080516020808201949094528082019290925280518083038201815260609092019052805191012090565b9150505b92915050565b600c8190556040518181527fe9a9868fdaf3f6179fe8012374366a6b13cc9596ad26ee37a06f12c548d633c39060200160405180910390a15050565b610665610dae565b61066d610dae565b61067981868686610781565b95945050505050565b608083015161069190836107be565b60808301516106a090826107be565b505050565b6004546000906106b68160016110a0565b600455835160408086015160808701515191516000936320214ca360e11b936106ee9386938493923092918a91600191602401610f58565b60408051601f198184030181529190526020810180516001600160e01b03166001600160e01b031990931692909217909152905061072e868386846107d5565b9695505050505050565b6040805160208082018790528183018690526001600160a01b038516606083015260808083018590528351808403909101815260a090920190925280519101205b949350505050565b610789610dae565b6107998560800151610100610942565b50509183526001600160a01b031660208301526001600160e01b031916604082015290565b6107cb82600383516109a7565b6106a08282610abc565b6040516bffffffffffffffffffffffff193060601b1660208201526034810184905260009060540160408051808303601f1901815282825280516020918201206000818152600590925291812080546001600160a01b0319166001600160a01b038a1617905590925082917fb5e6e01e79f91267dc17b4e6314d5d4d03593d2ceee0fbb452b750bd70ea5af99190a2600254604051630200057560e51b81526001600160a01b0390911690634000aea09061089890889087908790600401610fc0565b602060405180830381600087803b1580156108b257600080fd5b505af11580156108c6573d6000803e3d6000fd5b505050506040513d601f19601f820116820180604052508101906108ea9190610dfe565b6107795760405162461bcd60e51b815260206004820152602360248201527f756e61626c6520746f207472616e73666572416e6443616c6c20746f206f7261604482015262636c6560e81b60648201526084016101d7565b60408051808201909152606081526000602082015261096260208361120e565b1561098a5761097260208361120e565b61097d9060206111c2565b61098790836110a0565b91505b506020828101829052604080518085526000815290920101905290565b60178167ffffffffffffffff16116109d2576109cc8360e0600585901b168317610aea565b50505050565b60ff8167ffffffffffffffff1611610a10576109f9836018611fe0600586901b1617610aea565b506109cc8367ffffffffffffffff83166001610b0f565b61ffff8167ffffffffffffffff1611610a4f57610a38836019611fe0600586901b1617610aea565b506109cc8367ffffffffffffffff83166002610b0f565b63ffffffff8167ffffffffffffffff1611610a9057610a7983601a611fe0600586901b1617610aea565b506109cc8367ffffffffffffffff83166004610b0f565b610aa583601b611fe0600586901b1617610aea565b506109cc8367ffffffffffffffff83166008610b0f565b604080518082019091526060815260006020820152610ae383846000015151848551610b35565b9392505050565b604080518082019091526060815260006020820152610ae38384600001515184610c1f565b604080518082019091526060815260006020820152610779848560000151518585610c7b565b6040805180820190915260608152600060208201528251821115610b5857600080fd5b6020850151610b6783866110a0565b1115610b9a57610b9a85610b8a87602001518786610b8591906110a0565b610cfc565b610b959060026111a3565b610d13565b600080865180518760208301019350808887011115610bb95787860182525b505050602084015b60208410610bf95780518252610bd86020836110a0565b9150610be56020826110a0565b9050610bf26020856111c2565b9350610bc1565b51815160001960208690036101000a019081169019919091161790525083949350505050565b60408051808201909152606081526000602082015283602001518310610c5457610c548485602001516002610b9591906111a3565b835180516020858301018481535080851415610c71576001810182525b5093949350505050565b6040805180820190915260608152600060208201526020850151610c9f85846110a0565b1115610cb357610cb385610b8a86856110a0565b60006001610cc3846101006110fb565b610ccd91906111c2565b9050855183868201018583198251161781525080518487011115610cf15783860181525b509495945050505050565b600081831115610d0d57508161061b565b50919050565b8151610d1f8383610942565b506109cc8382610abc565b828054610d36906111d9565b90600052602060002090601f016020900481019282610d585760008555610d9e565b82601f10610d7157805160ff1916838001178555610d9e565b82800160010185558215610d9e579182015b82811115610d9e578251825591602001919060010190610d83565b50610daa929150610de9565b5090565b6040805160a0810182526000808252602080830182905282840182905260608084018390528451808601909552845283015290608082015290565b5b80821115610daa5760008155600101610dea565b600060208284031215610e0f578081fd5b81518015158114610ae3578182fd5b60008060408385031215610e30578081fd5b82359150602083013567ffffffffffffffff80821115610e4e578283fd5b818501915085601f830112610e61578283fd5b813581811115610e7357610e73611244565b604051601f8201601f19908116603f01168101908382118183101715610e9b57610e9b611244565b81604052828152886020848701011115610eb3578586fd5b82602086016020830137856020848301015280955050505050509250929050565b60008060408385031215610ee6578182fd5b50508035926020909101359150565b600060208284031215610f06578081fd5b5051919050565b60008151808452815b81811015610f3257602081850181015186830182015201610f16565b81811115610f435782602083870101525b50601f01601f19169290920160200192915050565b6001600160a01b0389811682526020820189905260408201889052861660608201526001600160e01b03198516608082015260a0810184905260c0810183905261010060e08201819052600090610fb183820185610f0d565b9b9a5050505050505050505050565b60018060a01b03841681528260208201526060604082015260006106796060830184610f0d565b602081526000610ae36020830184610f0d565b6000602080835281845483600182811c91508083168061101b57607f831692505b85831081141561103957634e487b7160e01b87526022600452602487fd5b878601838152602001818015611056576001811461106757611091565b60ff19861682528782019650611091565b60008b815260209020895b8681101561108b57815484820152908501908901611072565b83019750505b50949998505050505050505050565b600082198211156110b3576110b361122e565b500190565b600181815b808511156110f35781600019048211156110d9576110d961122e565b808516156110e657918102915b93841c93908002906110bd565b509250929050565b6000610ae383836000826111115750600161061b565b8161111e5750600061061b565b8160018114611134576002811461113e5761115a565b600191505061061b565b60ff84111561114f5761114f61122e565b50506001821b61061b565b5060208310610133831016604e8410600b841016171561117d575081810a61061b565b61118783836110b8565b806000190482111561119b5761119b61122e565b029392505050565b60008160001904831182151516156111bd576111bd61122e565b500290565b6000828210156111d4576111d461122e565b500390565b600181811c908216806111ed57607f821691505b60208210811415610d0d57634e487b7160e01b600052602260045260246000fd5b60008261122957634e487b7160e01b81526012600452602481fd5b500690565b634e487b7160e01b600052601160045260246000fd5b634e487b7160e01b600052604160045260246000fdfe68747470733a2f2f6170692e6e6577732d736572766963652e636f6d2f7761722d6e657773a264697066735822122001303638d3388038fbf9a30557a5c6205bc557564ad2ad02804cb35cfaf50b5164736f6c63430008040033",
  "linkReferences": {},
  "deployedLinkReferences": {}
}