{
  "_format": "hh-sol-artifact-1",
  "contractName": "ProductCatalog",
  "sourceName": "contracts/Product.sol",
  "abi": [
    {
      "anonymous": false,
      "inputs": [
        {
          "indexed": true,
          "internalType": "uint256",
          "name": "productId",
          "type": "uint256"
        },
        {
          "indexed": false,
          "internalType": "string",
          "name": "name",
          "type": "string"
        },
        {
          "indexed": false,
          "internalType": "uint256",
          "name": "quantity",
          "type": "uint256"
        }
      ],
      "name": "ProductAdded",
      "type": "event"
    },
    {
      "inputs": [
        {
          "internalType": "string",
          "name": "_name",
          "type": "string"
        },
        {
          "internalType": "uint256",
          "name": "_quantity",
          "type": "uint256"
        },
        {
          "internalType": "string",
          "name": "_description",
          "type": "string"
        },
        {
          "internalType": "string",
          "name": "_imageUrl",
          "type": "string"
        }
      ],
      "name": "addProduct",
      "outputs": [],
      "stateMutability": "nonpayable",
      "type": "function"
    },
    {
      "inputs": [],
      "name": "getAllProducts",
      "outputs": [
        {
          "components": [
            {
              "internalType": "string",
              "name": "name",
              "type": "string"
            },
            {
              "internalType": "uint256",
              "name": "quantity",
              "type": "uint256"
            },
            {
              "internalType": "uint256",
              "name": "dateAdded",
              "type": "uint256"
            },
            {
              "internalType": "string",
              "name": "description",
              "type": "string"
            },
            {
              "internalType": "string",
              "name": "imageUrl",
              "type": "string"
            },
            {
              "internalType": "bool",
              "name": "exists",
              "type": "bool"
            }
          ],
          "internalType": "struct ProductCatalog.Product[]",
          "name": "",
          "type": "tuple[]"
        }
      ],
      "stateMutability": "view",
      "type": "function"
    },
    {
      "inputs": [
        {
          "internalType": "uint256",
          "name": "_productId",
          "type": "uint256"
        }
      ],
      "name": "getProductById",
      "outputs": [
        {
          "internalType": "string",
          "name": "",
          "type": "string"
        },
        {
          "internalType": "uint256",
          "name": "",
          "type": "uint256"
        },
        {
          "internalType": "uint256",
          "name": "",
          "type": "uint256"
        },
        {
          "internalType": "string",
          "name": "",
          "type": "string"
        },
        {
          "internalType": "string",
          "name": "",
          "type": "string"
        }
      ],
      "stateMutability": "view",
      "type": "function"
    },
    {
      "inputs": [
        {
          "internalType": "string",
          "name": "_name",
          "type": "string"
        }
      ],
      "name": "getProductIdByName",
      "outputs": [
        {
          "internalType": "uint256",
          "name": "",
          "type": "uint256"
        }
      ],
      "stateMutability": "view",
      "type": "function"
    },
    {
      "inputs": [
        {
          "internalType": "bytes32",
          "name": "",
          "type": "bytes32"
        }
      ],
      "name": "productIdByName",
      "outputs": [
        {
          "internalType": "uint256",
          "name": "",
          "type": "uint256"
        }
      ],
      "stateMutability": "view",
      "type": "function"
    },
    {
      "inputs": [
        {
          "internalType": "uint256",
          "name": "",
          "type": "uint256"
        }
      ],
      "name": "products",
      "outputs": [
        {
          "internalType": "string",
          "name": "name",
          "type": "string"
        },
        {
          "internalType": "uint256",
          "name": "quantity",
          "type": "uint256"
        },
        {
          "internalType": "uint256",
          "name": "dateAdded",
          "type": "uint256"
        },
        {
          "internalType": "string",
          "name": "description",
          "type": "string"
        },
        {
          "internalType": "string",
          "name": "imageUrl",
          "type": "string"
        },
        {
          "internalType": "bool",
          "name": "exists",
          "type": "bool"
        }
      ],
      "stateMutability": "view",
      "type": "function"
    },
    {
      "inputs": [],
      "name": "totalProducts",
      "outputs": [
        {
          "internalType": "uint256",
          "name": "",
          "type": "uint256"
        }
      ],
      "stateMutability": "view",
      "type": "function"
    }
  ],
  "bytecode": "0x608060405234801561001057600080fd5b50610f58806100206000396000f3fe608060405234801561001057600080fd5b506004361061007d5760003560e01c80639b9d326d1161005b5780639b9d326d146100e9578063d732ce3214610100578063e1b6579814610115578063f08b55601461012857600080fd5b806302ee3a52146100825780633f70c2b4146100a05780637acc0b20146100c4575b600080fd5b61008a610148565b6040516100979190610cef565b60405180910390f35b6100b36100ae366004610bc6565b610445565b604051610097959493929190610dd4565b6100d76100d2366004610bc6565b61067e565b60405161009796959493929190610e25565b6100f260005481565b604051908152602001610097565b61011361010e366004610c19565b61084d565b005b6100f2610123366004610bde565b610a1c565b6100f2610136366004610bc6565b60026020526000908152604090205481565b60606000805467ffffffffffffffff81111561017457634e487b7160e01b600052604160045260246000fd5b6040519080825280602002602001820160405280156101e057816020015b6101cd6040518060c0016040528060608152602001600081526020016000815260200160608152602001606081526020016000151581525090565b8152602001906001900390816101925790505b50905060005b60005481101561043f5760008181526001602052604090206005015460ff161561042d5760008181526001602052604090819020815160c0810190925280549091908190839061023590610eb0565b80601f016020809104026020016040519081016040528092919081815260200182805461026190610eb0565b80156102ae5780601f10610283576101008083540402835291602001916102ae565b820191906000526020600020905b81548152906001019060200180831161029157829003601f168201915b5050505050815260200182600101548152602001826002015481526020018260030180546102db90610eb0565b80601f016020809104026020016040519081016040528092919081815260200182805461030790610eb0565b80156103545780601f1061032957610100808354040283529160200191610354565b820191906000526020600020905b81548152906001019060200180831161033757829003601f168201915b5050505050815260200182600401805461036d90610eb0565b80601f016020809104026020016040519081016040528092919081815260200182805461039990610eb0565b80156103e65780601f106103bb576101008083540402835291602001916103e6565b820191906000526020600020905b8154815290600101906020018083116103c957829003601f168201915b5050509183525050600583015460ff161515602090910152835184908490811061042057634e487b7160e01b600052603260045260246000fd5b6020026020010181905250505b8061043781610ee5565b9150506101e6565b50919050565b600081815260016020526040812060058101546060929182918491829160ff166104b05760405162461bcd60e51b8152602060048201526017602482015276283937b23ab1ba103237b2b9903737ba1032bc34b9ba1760491b60448201526064015b60405180910390fd5b806000018160010154826002015483600301846004018480546104d290610eb0565b80601f01602080910402602001604051908101604052809291908181526020018280546104fe90610eb0565b801561054b5780601f106105205761010080835404028352916020019161054b565b820191906000526020600020905b81548152906001019060200180831161052e57829003601f168201915b5050505050945081805461055e90610eb0565b80601f016020809104026020016040519081016040528092919081815260200182805461058a90610eb0565b80156105d75780601f106105ac576101008083540402835291602001916105d7565b820191906000526020600020905b8154815290600101906020018083116105ba57829003601f168201915b505050505091508080546105ea90610eb0565b80601f016020809104026020016040519081016040528092919081815260200182805461061690610eb0565b80156106635780601f1061063857610100808354040283529160200191610663565b820191906000526020600020905b81548152906001019060200180831161064657829003601f168201915b50505050509050955095509550955095505091939590929450565b60016020526000908152604090208054819061069990610eb0565b80601f01602080910402602001604051908101604052809291908181526020018280546106c590610eb0565b80156107125780601f106106e757610100808354040283529160200191610712565b820191906000526020600020905b8154815290600101906020018083116106f557829003601f168201915b50505050509080600101549080600201549080600301805461073390610eb0565b80601f016020809104026020016040519081016040528092919081815260200182805461075f90610eb0565b80156107ac5780601f10610781576101008083540402835291602001916107ac565b820191906000526020600020905b81548152906001019060200180831161078f57829003601f168201915b5050505050908060040180546107c190610eb0565b80601f01602080910402602001604051908101604052809291908181526020018280546107ed90610eb0565b801561083a5780601f1061080f5761010080835404028352916020019161083a565b820191906000526020600020905b81548152906001019060200180831161081d57829003601f168201915b5050506005909301549192505060ff1686565b600083116108ab5760405162461bcd60e51b815260206004820152602560248201527f5175616e746974792073686f756c642062652067726561746572207468616e206044820152643d32b9379760d91b60648201526084016104a7565b6000846040516020016108be9190610cd3565b60408051601f19818403018152918152815160209283012060008181526002909352912054909150156109465760405162461bcd60e51b815260206004820152602a60248201527f50726f647563742077697468207468652073616d65206e616d6520616c726561604482015269323c9032bc34b9ba399760b11b60648201526084016104a7565b600080548282526002602052604082208190559081908061096683610ee5565b909155505060008181526001602090815260409091208751909161098e9183918a0190610aa6565b506001810186905542600282015584516109b19060038301906020880190610aa6565b5083516109c79060048301906020870190610aa6565b5060058101805460ff1916600117905560405182907fcca07c742c5274e8b72111ba69566aa4442450bfc50bd897ea38d0170d1accfc90610a0b908a908a90610db2565b60405180910390a250505050505050565b60008082604051602001610a309190610cd3565b60408051601f1981840301815291815281516020928301206000818152600290935291205490915080610a9f5760405162461bcd60e51b8152602060048201526017602482015276283937b23ab1ba103237b2b9903737ba1032bc34b9ba1760491b60448201526064016104a7565b9392505050565b828054610ab290610eb0565b90600052602060002090601f016020900481019282610ad45760008555610b1a565b82601f10610aed57805160ff1916838001178555610b1a565b82800160010185558215610b1a579182015b82811115610b1a578251825591602001919060010190610aff565b50610b26929150610b2a565b5090565b5b80821115610b265760008155600101610b2b565b600082601f830112610b4f578081fd5b813567ffffffffffffffff80821115610b6a57610b6a610f0c565b604051601f8301601f19908116603f01168101908282118183101715610b9257610b92610f0c565b81604052838152866020858801011115610baa578485fd5b8360208701602083013792830160200193909352509392505050565b600060208284031215610bd7578081fd5b5035919050565b600060208284031215610bef578081fd5b813567ffffffffffffffff811115610c05578182fd5b610c1184828501610b3f565b949350505050565b60008060008060808587031215610c2e578283fd5b843567ffffffffffffffff80821115610c45578485fd5b610c5188838901610b3f565b9550602087013594506040870135915080821115610c6d578384fd5b610c7988838901610b3f565b93506060870135915080821115610c8e578283fd5b50610c9b87828801610b3f565b91505092959194509250565b60008151808452610cbf816020860160208601610e80565b601f01601f19169290920160200192915050565b60008251610ce5818460208701610e80565b9190910192915050565b60006020808301818452808551808352604092508286019150828160051b870101848801865b83811015610da457603f19898403018552815160c08151818652610d3b82870182610ca7565b9150508882015189860152878201518886015260608083015186830382880152610d658382610ca7565b9250505060808083015186830382880152610d808382610ca7565b60a09485015115159790940196909652505094870194925090860190600101610d15565b509098975050505050505050565b604081526000610dc56040830185610ca7565b90508260208301529392505050565b60a081526000610de760a0830188610ca7565b8660208401528560408401528281036060840152610e058186610ca7565b90508281036080840152610e198185610ca7565b98975050505050505050565b60c081526000610e3860c0830189610ca7565b8760208401528660408401528281036060840152610e568187610ca7565b90508281036080840152610e6a8186610ca7565b91505082151560a0830152979650505050505050565b60005b83811015610e9b578181015183820152602001610e83565b83811115610eaa576000848401525b50505050565b600181811c90821680610ec457607f821691505b6020821081141561043f57634e487b7160e01b600052602260045260246000fd5b6000600019821415610f0557634e487b7160e01b81526011600452602481fd5b5060010190565b634e487b7160e01b600052604160045260246000fdfea264697066735822122087cd8776788687a930d2c646b91839dcb440ea0db4e4b8bbcd27d6bfdbe4400e64736f6c63430008040033",
  "linkReferences": {},
  "deployedLinkReferences": {}
}