{
  "_format": "hh-sol-artifact-1",
  "contractName": "Product",
  "sourceName": "contracts/Product.sol",
  "abi": [
    {
      "anonymous": false,
      "inputs": [
        {
          "indexed": true,
          "internalType": "uint256",
          "name": "productId",
          "type": "uint256"
        },
        {
          "indexed": false,
          "internalType": "string",
          "name": "name",
          "type": "string"
        },
        {
          "indexed": false,
          "internalType": "uint256",
          "name": "quantity",
          "type": "uint256"
        }
      ],
      "name": "ProductAdded",
      "type": "event"
    },
    {
      "anonymous": false,
      "inputs": [
        {
          "indexed": true,
          "internalType": "uint256",
          "name": "productId",
          "type": "uint256"
        },
        {
          "indexed": false,
          "internalType": "uint256",
          "name": "quantity",
          "type": "uint256"
        },
        {
          "indexed": false,
          "internalType": "string",
          "name": "supplyLocation",
          "type": "string"
        }
      ],
      "name": "ProductSupplied",
      "type": "event"
    },
    {
      "inputs": [
        {
          "internalType": "string",
          "name": "_name",
          "type": "string"
        },
        {
          "internalType": "uint256",
          "name": "_quantity",
          "type": "uint256"
        },
        {
          "internalType": "string",
          "name": "_description",
          "type": "string"
        },
        {
          "internalType": "string",
          "name": "_imageUrl",
          "type": "string"
        }
      ],
      "name": "addProduct",
      "outputs": [],
      "stateMutability": "nonpayable",
      "type": "function"
    },
    {
      "inputs": [],
      "name": "getAllProducts",
      "outputs": [
        {
          "components": [
            {
              "internalType": "string",
              "name": "name",
              "type": "string"
            },
            {
              "internalType": "uint256",
              "name": "quantity",
              "type": "uint256"
            },
            {
              "internalType": "uint256",
              "name": "dateAdded",
              "type": "uint256"
            },
            {
              "internalType": "string",
              "name": "description",
              "type": "string"
            },
            {
              "internalType": "string",
              "name": "imageUrl",
              "type": "string"
            },
            {
              "internalType": "bool",
              "name": "exists",
              "type": "bool"
            },
            {
              "internalType": "string",
              "name": "supplyLocation",
              "type": "string"
            }
          ],
          "internalType": "struct Product.Product[]",
          "name": "",
          "type": "tuple[]"
        }
      ],
      "stateMutability": "view",
      "type": "function"
    },
    {
      "inputs": [
        {
          "internalType": "uint256",
          "name": "_productId",
          "type": "uint256"
        }
      ],
      "name": "getProductById",
      "outputs": [
        {
          "internalType": "string",
          "name": "",
          "type": "string"
        },
        {
          "internalType": "uint256",
          "name": "",
          "type": "uint256"
        },
        {
          "internalType": "uint256",
          "name": "",
          "type": "uint256"
        },
        {
          "internalType": "string",
          "name": "",
          "type": "string"
        },
        {
          "internalType": "string",
          "name": "",
          "type": "string"
        }
      ],
      "stateMutability": "view",
      "type": "function"
    },
    {
      "inputs": [
        {
          "internalType": "string",
          "name": "_name",
          "type": "string"
        }
      ],
      "name": "getProductIdByName",
      "outputs": [
        {
          "internalType": "uint256",
          "name": "",
          "type": "uint256"
        }
      ],
      "stateMutability": "view",
      "type": "function"
    },
    {
      "inputs": [
        {
          "internalType": "bytes32",
          "name": "",
          "type": "bytes32"
        }
      ],
      "name": "productIdByName",
      "outputs": [
        {
          "internalType": "uint256",
          "name": "",
          "type": "uint256"
        }
      ],
      "stateMutability": "view",
      "type": "function"
    },
    {
      "inputs": [
        {
          "internalType": "uint256",
          "name": "",
          "type": "uint256"
        }
      ],
      "name": "products",
      "outputs": [
        {
          "internalType": "string",
          "name": "name",
          "type": "string"
        },
        {
          "internalType": "uint256",
          "name": "quantity",
          "type": "uint256"
        },
        {
          "internalType": "uint256",
          "name": "dateAdded",
          "type": "uint256"
        },
        {
          "internalType": "string",
          "name": "description",
          "type": "string"
        },
        {
          "internalType": "string",
          "name": "imageUrl",
          "type": "string"
        },
        {
          "internalType": "bool",
          "name": "exists",
          "type": "bool"
        },
        {
          "internalType": "string",
          "name": "supplyLocation",
          "type": "string"
        }
      ],
      "stateMutability": "view",
      "type": "function"
    },
    {
      "inputs": [
        {
          "internalType": "uint256",
          "name": "_productId",
          "type": "uint256"
        },
        {
          "internalType": "uint256",
          "name": "_quantity",
          "type": "uint256"
        },
        {
          "internalType": "string",
          "name": "_supplyLocation",
          "type": "string"
        }
      ],
      "name": "supply",
      "outputs": [],
      "stateMutability": "nonpayable",
      "type": "function"
    },
    {
      "inputs": [],
      "name": "totalProducts",
      "outputs": [
        {
          "internalType": "uint256",
          "name": "",
          "type": "uint256"
        }
      ],
      "stateMutability": "view",
      "type": "function"
    }
  ],
  "bytecode": "0x608060405234801561001057600080fd5b50611244806100206000396000f3fe608060405234801561001057600080fd5b50600436106100885760003560e01c80639b9d326d1161005b5780639b9d326d1461010a578063d732ce3214610121578063e1b6579814610134578063f08b55601461014757600080fd5b806302ee3a521461008d5780633f70c2b4146100ab5780637173b626146100cf5780637acc0b20146100e4575b600080fd5b610095610167565b6040516100a29190610f3b565b60405180910390f35b6100be6100b9366004610dc4565b6104fe565b6040516100a295949392919061103b565b6100e26100dd366004610ea5565b610711565b005b6100f76100f2366004610dc4565b610812565b6040516100a2979695949392919061108c565b61011360005481565b6040519081526020016100a2565b6100e261012f366004610e17565b610a75565b610113610142366004610ddc565b610c44565b610113610155366004610dc4565b60026020526000908152604090205481565b60606000805467ffffffffffffffff81111561019357634e487b7160e01b600052604160045260246000fd5b60405190808252806020026020018201604052801561020657816020015b6101f36040518060e001604052806060815260200160008152602001600081526020016060815260200160608152602001600015158152602001606081525090565b8152602001906001900390816101b15790505b50905060005b6000548110156104f85760008181526001602052604090206005015460ff16156104e65760008181526001602052604090819020815160e0810190925280549091908190839061025b90611192565b80601f016020809104026020016040519081016040528092919081815260200182805461028790611192565b80156102d45780601f106102a9576101008083540402835291602001916102d4565b820191906000526020600020905b8154815290600101906020018083116102b757829003601f168201915b50505050508152602001826001015481526020018260020154815260200182600301805461030190611192565b80601f016020809104026020016040519081016040528092919081815260200182805461032d90611192565b801561037a5780601f1061034f5761010080835404028352916020019161037a565b820191906000526020600020905b81548152906001019060200180831161035d57829003601f168201915b5050505050815260200182600401805461039390611192565b80601f01602080910402602001604051908101604052809291908181526020018280546103bf90611192565b801561040c5780601f106103e15761010080835404028352916020019161040c565b820191906000526020600020905b8154815290600101906020018083116103ef57829003601f168201915b5050509183525050600583015460ff161515602082015260068301805460409092019161043890611192565b80601f016020809104026020016040519081016040528092919081815260200182805461046490611192565b80156104b15780601f10610486576101008083540402835291602001916104b1565b820191906000526020600020905b81548152906001019060200180831161049457829003601f168201915b50505050508152508383815181106104d957634e487b7160e01b600052603260045260246000fd5b6020026020010181905250505b806104f0816111c7565b91505061020c565b50919050565b600081815260016020526040812060058101546060929182918491829160ff166105435760405162461bcd60e51b815260040161053a906110fb565b60405180910390fd5b8060000181600101548260020154836003018460040184805461056590611192565b80601f016020809104026020016040519081016040528092919081815260200182805461059190611192565b80156105de5780601f106105b3576101008083540402835291602001916105de565b820191906000526020600020905b8154815290600101906020018083116105c157829003601f168201915b505050505094508180546105f190611192565b80601f016020809104026020016040519081016040528092919081815260200182805461061d90611192565b801561066a5780601f1061063f5761010080835404028352916020019161066a565b820191906000526020600020905b81548152906001019060200180831161064d57829003601f168201915b5050505050915080805461067d90611192565b80601f01602080910402602001604051908101604052809291908181526020018280546106a990611192565b80156106f65780601f106106cb576101008083540402835291602001916106f6565b820191906000526020600020905b8154815290600101906020018083116106d957829003601f168201915b50505050509050955095509550955095505091939590929450565b6000838152600160205260409020600581015460ff166107435760405162461bcd60e51b815260040161053a906110fb565b600083118015610757575080600101548311155b6107a35760405162461bcd60e51b815260206004820152601f60248201527f496e73756666696369656e74207175616e7469747920696e2073746f636b2e00604482015260640161053a565b828160010160008282546107b7919061114b565b909155505081516107d19060068301906020850190610ca4565b50837f1ed2e4c50cb839b7d06764724862e4647a977beae881dd8e28a04e2df566d4ab8484604051610804929190611132565b60405180910390a250505050565b60016020526000908152604090208054819061082d90611192565b80601f016020809104026020016040519081016040528092919081815260200182805461085990611192565b80156108a65780601f1061087b576101008083540402835291602001916108a6565b820191906000526020600020905b81548152906001019060200180831161088957829003601f168201915b5050505050908060010154908060020154908060030180546108c790611192565b80601f01602080910402602001604051908101604052809291908181526020018280546108f390611192565b80156109405780601f1061091557610100808354040283529160200191610940565b820191906000526020600020905b81548152906001019060200180831161092357829003601f168201915b50505050509080600401805461095590611192565b80601f016020809104026020016040519081016040528092919081815260200182805461098190611192565b80156109ce5780601f106109a3576101008083540402835291602001916109ce565b820191906000526020600020905b8154815290600101906020018083116109b157829003601f168201915b5050506005840154600685018054949560ff9092169491935091506109f290611192565b80601f0160208091040260200160405190810160405280929190818152602001828054610a1e90611192565b8015610a6b5780601f10610a4057610100808354040283529160200191610a6b565b820191906000526020600020905b815481529060010190602001808311610a4e57829003601f168201915b5050505050905087565b60008311610ad35760405162461bcd60e51b815260206004820152602560248201527f5175616e746974792073686f756c642062652067726561746572207468616e206044820152643d32b9379760d91b606482015260840161053a565b600084604051602001610ae69190610f1f565b60408051601f1981840301815291815281516020928301206000818152600290935291205490915015610b6e5760405162461bcd60e51b815260206004820152602a60248201527f50726f647563742077697468207468652073616d65206e616d6520616c726561604482015269323c9032bc34b9ba399760b11b606482015260840161053a565b6000805482825260026020526040822081905590819080610b8e836111c7565b9091555050600081815260016020908152604090912087519091610bb69183918a0190610ca4565b50600181018690554260028201558451610bd99060038301906020880190610ca4565b508351610bef9060048301906020870190610ca4565b5060058101805460ff1916600117905560405182907fcca07c742c5274e8b72111ba69566aa4442450bfc50bd897ea38d0170d1accfc90610c33908a908a90611019565b60405180910390a250505050505050565b60008082604051602001610c589190610f1f565b60408051601f1981840301815291815281516020928301206000818152600290935291205490915080610c9d5760405162461bcd60e51b815260040161053a906110fb565b9392505050565b828054610cb090611192565b90600052602060002090601f016020900481019282610cd25760008555610d18565b82601f10610ceb57805160ff1916838001178555610d18565b82800160010185558215610d18579182015b82811115610d18578251825591602001919060010190610cfd565b50610d24929150610d28565b5090565b5b80821115610d245760008155600101610d29565b600082601f830112610d4d578081fd5b813567ffffffffffffffff80821115610d6857610d686111f8565b604051601f8301601f19908116603f01168101908282118183101715610d9057610d906111f8565b81604052838152866020858801011115610da8578485fd5b8360208701602083013792830160200193909352509392505050565b600060208284031215610dd5578081fd5b5035919050565b600060208284031215610ded578081fd5b813567ffffffffffffffff811115610e03578182fd5b610e0f84828501610d3d565b949350505050565b60008060008060808587031215610e2c578283fd5b843567ffffffffffffffff80821115610e43578485fd5b610e4f88838901610d3d565b9550602087013594506040870135915080821115610e6b578384fd5b610e7788838901610d3d565b93506060870135915080821115610e8c578283fd5b50610e9987828801610d3d565b91505092959194509250565b600080600060608486031215610eb9578283fd5b8335925060208401359150604084013567ffffffffffffffff811115610edd578182fd5b610ee986828701610d3d565b9150509250925092565b60008151808452610f0b816020860160208601611162565b601f01601f19169290920160200192915050565b60008251610f31818460208701611162565b9190910192915050565b60006020808301818452808551808352604092508286019150828160051b870101848801865b8381101561100b57603f19898403018552815160e08151818652610f8782870182610ef3565b9150508882015189860152878201518886015260608083015186830382880152610fb18382610ef3565b9250505060808083015186830382880152610fcc8382610ef3565b9250505060a0808301511515818701525060c08083015192508582038187015250610ff78183610ef3565b968901969450505090860190600101610f61565b509098975050505050505050565b60408152600061102c6040830185610ef3565b90508260208301529392505050565b60a08152600061104e60a0830188610ef3565b866020840152856040840152828103606084015261106c8186610ef3565b905082810360808401526110808185610ef3565b98975050505050505050565b60e08152600061109f60e083018a610ef3565b88602084015287604084015282810360608401526110bd8188610ef3565b905082810360808401526110d18187610ef3565b905084151560a084015282810360c08401526110ed8185610ef3565b9a9950505050505050505050565b60208082526017908201527f50726f6475637420646f6573206e6f742065786973742e000000000000000000604082015260600190565b828152604060208201526000610e0f6040830184610ef3565b60008282101561115d5761115d6111e2565b500390565b60005b8381101561117d578181015183820152602001611165565b8381111561118c576000848401525b50505050565b600181811c908216806111a657607f821691505b602082108114156104f857634e487b7160e01b600052602260045260246000fd5b60006000198214156111db576111db6111e2565b5060010190565b634e487b7160e01b600052601160045260246000fd5b634e487b7160e01b600052604160045260246000fdfea2646970667358221220284b008f1956a8b22f9c07f05604c6413094c1f0d31225cf913163184abd05ef64736f6c63430008040033",
  "linkReferences": {},
  "deployedLinkReferences": {}
}