{
  "_format": "hh-sol-artifact-1",
  "contractName": "CarbonFootPrint",
  "sourceName": "contracts/CarbonFootPrint.sol",
  "abi": [
    {
      "anonymous": false,
      "inputs": [
        {
          "indexed": true,
          "internalType": "uint256",
          "name": "projectId",
          "type": "uint256"
        },
        {
          "indexed": false,
          "internalType": "uint256",
          "name": "carbonOffsetRemoved",
          "type": "uint256"
        }
      ],
      "name": "CarbonOffsetRemoved",
      "type": "event"
    },
    {
      "anonymous": false,
      "inputs": [
        {
          "indexed": true,
          "internalType": "uint256",
          "name": "projectId",
          "type": "uint256"
        },
        {
          "indexed": true,
          "internalType": "address",
          "name": "doner",
          "type": "address"
        },
        {
          "indexed": false,
          "internalType": "uint256",
          "name": "amount",
          "type": "uint256"
        }
      ],
      "name": "DonationReceived",
      "type": "event"
    },
    {
      "anonymous": false,
      "inputs": [
        {
          "indexed": true,
          "internalType": "uint256",
          "name": "projectId",
          "type": "uint256"
        },
        {
          "indexed": false,
          "internalType": "string",
          "name": "name",
          "type": "string"
        },
        {
          "indexed": false,
          "internalType": "uint256",
          "name": "targetCarbonOffset",
          "type": "uint256"
        },
        {
          "indexed": false,
          "internalType": "uint256",
          "name": "deadline",
          "type": "uint256"
        }
      ],
      "name": "ProjectCreated",
      "type": "event"
    },
    {
      "inputs": [
        {
          "internalType": "uint256",
          "name": "_projectId",
          "type": "uint256"
        }
      ],
      "name": "carbonOffsetRemoved",
      "outputs": [
        {
          "internalType": "uint256",
          "name": "",
          "type": "uint256"
        }
      ],
      "stateMutability": "view",
      "type": "function"
    },
    {
      "inputs": [
        {
          "internalType": "string",
          "name": "_name",
          "type": "string"
        },
        {
          "internalType": "string",
          "name": "_country",
          "type": "string"
        },
        {
          "internalType": "string",
          "name": "_description",
          "type": "string"
        },
        {
          "internalType": "string",
          "name": "_latitude",
          "type": "string"
        },
        {
          "internalType": "string",
          "name": "_longitude",
          "type": "string"
        },
        {
          "internalType": "uint256",
          "name": "_targetCarbonOffset",
          "type": "uint256"
        },
        {
          "internalType": "uint256",
          "name": "_deadline",
          "type": "uint256"
        },
        {
          "internalType": "string",
          "name": "_imageCID",
          "type": "string"
        }
      ],
      "name": "createProject",
      "outputs": [],
      "stateMutability": "nonpayable",
      "type": "function"
    },
    {
      "inputs": [
        {
          "internalType": "uint256",
          "name": "_projectId",
          "type": "uint256"
        }
      ],
      "name": "donate",
      "outputs": [],
      "stateMutability": "payable",
      "type": "function"
    },
    {
      "inputs": [],
      "name": "getAllProjects",
      "outputs": [
        {
          "components": [
            {
              "internalType": "string",
              "name": "name",
              "type": "string"
            },
            {
              "internalType": "string",
              "name": "country",
              "type": "string"
            },
            {
              "internalType": "string",
              "name": "description",
              "type": "string"
            },
            {
              "internalType": "string",
              "name": "latitude",
              "type": "string"
            },
            {
              "internalType": "string",
              "name": "longitude",
              "type": "string"
            },
            {
              "internalType": "uint256",
              "name": "targetCarbonOffset",
              "type": "uint256"
            },
            {
              "internalType": "uint256",
              "name": "carbonOffsetRemoved",
              "type": "uint256"
            },
            {
              "internalType": "uint256",
              "name": "deadline",
              "type": "uint256"
            },
            {
              "internalType": "uint256",
              "name": "totalDonationsReceived",
              "type": "uint256"
            },
            {
              "internalType": "string",
              "name": "imageCID",
              "type": "string"
            }
          ],
          "internalType": "struct CarbonFootPrint.ProjectDetails[]",
          "name": "",
          "type": "tuple[]"
        }
      ],
      "stateMutability": "view",
      "type": "function"
    },
    {
      "inputs": [
        {
          "internalType": "uint256",
          "name": "_projectId",
          "type": "uint256"
        }
      ],
      "name": "getProjectById",
      "outputs": [
        {
          "internalType": "string",
          "name": "",
          "type": "string"
        },
        {
          "internalType": "string",
          "name": "",
          "type": "string"
        },
        {
          "internalType": "string",
          "name": "",
          "type": "string"
        },
        {
          "internalType": "string",
          "name": "",
          "type": "string"
        },
        {
          "internalType": "string",
          "name": "",
          "type": "string"
        },
        {
          "internalType": "uint256",
          "name": "",
          "type": "uint256"
        },
        {
          "internalType": "uint256",
          "name": "",
          "type": "uint256"
        },
        {
          "internalType": "bool",
          "name": "",
          "type": "bool"
        },
        {
          "internalType": "address[]",
          "name": "",
          "type": "address[]"
        },
        {
          "internalType": "string",
          "name": "",
          "type": "string"
        }
      ],
      "stateMutability": "view",
      "type": "function"
    },
    {
      "inputs": [
        {
          "internalType": "string",
          "name": "_name",
          "type": "string"
        }
      ],
      "name": "getProjectIdByName",
      "outputs": [
        {
          "internalType": "uint256",
          "name": "",
          "type": "uint256"
        }
      ],
      "stateMutability": "view",
      "type": "function"
    },
    {
      "inputs": [
        {
          "internalType": "bytes32",
          "name": "",
          "type": "bytes32"
        }
      ],
      "name": "projectIdByName",
      "outputs": [
        {
          "internalType": "uint256",
          "name": "",
          "type": "uint256"
        }
      ],
      "stateMutability": "view",
      "type": "function"
    },
    {
      "inputs": [
        {
          "internalType": "uint256",
          "name": "",
          "type": "uint256"
        }
      ],
      "name": "projects",
      "outputs": [
        {
          "internalType": "string",
          "name": "name",
          "type": "string"
        },
        {
          "internalType": "string",
          "name": "country",
          "type": "string"
        },
        {
          "internalType": "string",
          "name": "description",
          "type": "string"
        },
        {
          "internalType": "string",
          "name": "latitude",
          "type": "string"
        },
        {
          "internalType": "string",
          "name": "longitude",
          "type": "string"
        },
        {
          "internalType": "uint256",
          "name": "targetCarbonOffset",
          "type": "uint256"
        },
        {
          "internalType": "uint256",
          "name": "carbonOffsetRemoved",
          "type": "uint256"
        },
        {
          "internalType": "uint256",
          "name": "deadline",
          "type": "uint256"
        },
        {
          "internalType": "uint256",
          "name": "totalDonationsReceived",
          "type": "uint256"
        },
        {
          "internalType": "bool",
          "name": "exists",
          "type": "bool"
        },
        {
          "internalType": "string",
          "name": "imageCID",
          "type": "string"
        }
      ],
      "stateMutability": "view",
      "type": "function"
    },
    {
      "inputs": [],
      "name": "totalProjectsCreated",
      "outputs": [
        {
          "internalType": "uint256",
          "name": "",
          "type": "uint256"
        }
      ],
      "stateMutability": "view",
      "type": "function"
    }
  ],
  "bytecode": "0x608060405234801561001057600080fd5b50611ba3806100206000396000f3fe6080604052600436106100865760003560e01c80639d29d2dd116100595780639d29d2dd1461013e5780639f109a571461015e578063bee5cdca14610180578063eafbd8ee146101b6578063f14faf6f146101d657600080fd5b8063107046bd1461008b5780631c91ecb6146100cb578063594349c8146100ef57806380d038291461011c575b600080fd5b34801561009757600080fd5b506100ab6100a63660046115a7565b6101e9565b6040516100c29b9a99989796959493929190611944565b60405180910390f35b3480156100d757600080fd5b506100e160015481565b6040519081526020016100c2565b3480156100fb57600080fd5b506100e161010a3660046115a7565b60036020526000908152604090205481565b34801561012857600080fd5b50610131610578565b6040516100c29190611745565b34801561014a57600080fd5b506100e16101593660046115a7565b610a5f565b34801561016a57600080fd5b5061017e6101793660046115fa565b610aa4565b005b34801561018c57600080fd5b506101a061019b3660046115a7565b610d17565b6040516100c29a99989796959493929190611863565b3480156101c257600080fd5b506100e16101d13660046115bf565b61115c565b61017e6101e43660046115a7565b6111bc565b60026020526000908152604090208054819061020490611aeb565b80601f016020809104026020016040519081016040528092919081815260200182805461023090611aeb565b801561027d5780601f106102525761010080835404028352916020019161027d565b820191906000526020600020905b81548152906001019060200180831161026057829003601f168201915b50505050509080600101805461029290611aeb565b80601f01602080910402602001604051908101604052809291908181526020018280546102be90611aeb565b801561030b5780601f106102e05761010080835404028352916020019161030b565b820191906000526020600020905b8154815290600101906020018083116102ee57829003601f168201915b50505050509080600201805461032090611aeb565b80601f016020809104026020016040519081016040528092919081815260200182805461034c90611aeb565b80156103995780601f1061036e57610100808354040283529160200191610399565b820191906000526020600020905b81548152906001019060200180831161037c57829003601f168201915b5050505050908060030180546103ae90611aeb565b80601f01602080910402602001604051908101604052809291908181526020018280546103da90611aeb565b80156104275780601f106103fc57610100808354040283529160200191610427565b820191906000526020600020905b81548152906001019060200180831161040a57829003601f168201915b50505050509080600401805461043c90611aeb565b80601f016020809104026020016040519081016040528092919081815260200182805461046890611aeb565b80156104b55780601f1061048a576101008083540402835291602001916104b5565b820191906000526020600020905b81548152906001019060200180831161049857829003601f168201915b5050505050908060050154908060060154908060070154908060080154908060090160009054906101000a900460ff169080600c0180546104f590611aeb565b80601f016020809104026020016040519081016040528092919081815260200182805461052190611aeb565b801561056e5780601f106105435761010080835404028352916020019161056e565b820191906000526020600020905b81548152906001019060200180831161055157829003601f168201915b505050505090508b565b6060600060015467ffffffffffffffff8111156105a557634e487b7160e01b600052604160045260246000fd5b60405190808252806020026020018201604052801561062c57816020015b610619604051806101400160405280606081526020016060815260200160608152602001606081526020016060815260200160008152602001600081526020016000815260200160008152602001606081525090565b8152602001906001900390816105c35790505b5090506000805b600154811015610a575760008181526002602052604090206009015460ff1615610a4557600081815260026020526040808220815161014081019092528054909291908190849061068390611aeb565b80601f01602080910402602001604051908101604052809291908181526020018280546106af90611aeb565b80156106fc5780601f106106d1576101008083540402835291602001916106fc565b820191906000526020600020905b8154815290600101906020018083116106df57829003601f168201915b5050505050815260200183600101805461071590611aeb565b80601f016020809104026020016040519081016040528092919081815260200182805461074190611aeb565b801561078e5780601f106107635761010080835404028352916020019161078e565b820191906000526020600020905b81548152906001019060200180831161077157829003601f168201915b505050505081526020018360020180546107a790611aeb565b80601f01602080910402602001604051908101604052809291908181526020018280546107d390611aeb565b80156108205780601f106107f557610100808354040283529160200191610820565b820191906000526020600020905b81548152906001019060200180831161080357829003601f168201915b5050505050815260200183600301805461083990611aeb565b80601f016020809104026020016040519081016040528092919081815260200182805461086590611aeb565b80156108b25780601f10610887576101008083540402835291602001916108b2565b820191906000526020600020905b81548152906001019060200180831161089557829003601f168201915b505050505081526020018360040180546108cb90611aeb565b80601f01602080910402602001604051908101604052809291908181526020018280546108f790611aeb565b80156109445780601f1061091957610100808354040283529160200191610944565b820191906000526020600020905b81548152906001019060200180831161092757829003601f168201915b505050505081526020018360050154815260200183600601548152602001836007015481526020018360080154815260200183600c01805461098590611aeb565b80601f01602080910402602001604051908101604052809291908181526020018280546109b190611aeb565b80156109fe5780601f106109d3576101008083540402835291602001916109fe565b820191906000526020600020905b8154815290600101906020018083116109e157829003601f168201915b5050505050815250905080858581518110610a2957634e487b7160e01b600052603260045260246000fd5b60200260200101819052508380610a3f90611b26565b94505050505b80610a4f81611b26565b915050610633565b509092915050565b6000818152600260205260408120600981015460ff16610a9a5760405162461bcd60e51b8152600401610a9190611a16565b60405180910390fd5b6006015492915050565b60008311610b0e5760405162461bcd60e51b815260206004820152603160248201527f54617267657420636172626f6e206f66667365742073686f756c6420626520676044820152703932b0ba32b9103a3430b7103d32b9379760791b6064820152608401610a91565b428211610b5d5760405162461bcd60e51b815260206004820152601d60248201527f446561646c696e652073686f756c6420626520696e206675747572652e0000006044820152606401610a91565b600088604051602001610b709190611729565b60408051601f1981840301815291815281516020928301206000818152600390935291205490915015610bf85760405162461bcd60e51b815260206004820152602a60248201527f50726f6a6563742077697468207468652073616d65206e616d6520616c726561604482015269323c9032bc34b9ba399760b11b6064820152608401610a91565b60018054600083815260036020526040812082905590918291610c1a83611b26565b909155505060008181526002602090815260409091208b519091610c429183918e0190611487565b508951610c5890600183019060208d0190611487565b508851610c6e90600283019060208c0190611487565b508751610c8490600383019060208b0190611487565b508651610c9a90600483019060208a0190611487565b50600581018690556007810185905560098101805460ff191660011790558351610ccd90600c8301906020870190611487565b50817f6ad8e25e78a676033392e940160acc1fa955f929f88d380f5fd2d2f5d9ce9e208c8888604051610d02939291906119f1565b60405180910390a25050505050505050505050565b6000818152600260205260408120600981015460609283928392839283929091829182918591829160ff16610d5e5760405162461bcd60e51b8152600401610a9190611a16565b8060000181600101826002018360030184600401856005015486600601548760090160009054906101000a900460ff1688600a0189600c01898054610da290611aeb565b80601f0160208091040260200160405190810160405280929190818152602001828054610dce90611aeb565b8015610e1b5780601f10610df057610100808354040283529160200191610e1b565b820191906000526020600020905b815481529060010190602001808311610dfe57829003601f168201915b50505050509950888054610e2e90611aeb565b80601f0160208091040260200160405190810160405280929190818152602001828054610e5a90611aeb565b8015610ea75780601f10610e7c57610100808354040283529160200191610ea7565b820191906000526020600020905b815481529060010190602001808311610e8a57829003601f168201915b50505050509850878054610eba90611aeb565b80601f0160208091040260200160405190810160405280929190818152602001828054610ee690611aeb565b8015610f335780601f10610f0857610100808354040283529160200191610f33565b820191906000526020600020905b815481529060010190602001808311610f1657829003601f168201915b50505050509750868054610f4690611aeb565b80601f0160208091040260200160405190810160405280929190818152602001828054610f7290611aeb565b8015610fbf5780601f10610f9457610100808354040283529160200191610fbf565b820191906000526020600020905b815481529060010190602001808311610fa257829003601f168201915b50505050509650858054610fd290611aeb565b80601f0160208091040260200160405190810160405280929190818152602001828054610ffe90611aeb565b801561104b5780601f106110205761010080835404028352916020019161104b565b820191906000526020600020905b81548152906001019060200180831161102e57829003601f168201915b50505050509550818054806020026020016040519081016040528092919081815260200182805480156110a757602002820191906000526020600020905b81546001600160a01b03168152600190910190602001808311611089575b505050505091508080546110ba90611aeb565b80601f01602080910402602001604051908101604052809291908181526020018280546110e690611aeb565b80156111335780601f1061110857610100808354040283529160200191611133565b820191906000526020600020905b81548152906001019060200180831161111657829003601f168201915b505050505090509a509a509a509a509a509a509a509a509a509a50509193959799509193959799565b600080826040516020016111709190611729565b60408051601f19818403018152918152815160209283012060008181526003909352912054909150806111b55760405162461bcd60e51b8152600401610a9190611a16565b9392505050565b6000818152600260205260409020600981015460ff166111ee5760405162461bcd60e51b8152600401610a9190611a16565b80600701544211156112425760405162461bcd60e51b815260206004820152601c60248201527f50726f6a65637420646561646c696e6520686173207061737365642e000000006044820152606401610a91565b80600501548160060154106112b05760405162461bcd60e51b815260206004820152602e60248201527f54617267657420636172626f6e206f66667365742068617320616c726561647960448201526d103132b2b7103932b0b1b432b21760911b6064820152608401610a91565b600034116113155760405162461bcd60e51b815260206004820152602c60248201527f446f6e6174696f6e20616d6f756e742073686f756c642062652067726561746560448201526b39103a3430b7103d32b9379760a11b6064820152608401610a91565b60008160060154826005015461132b9190611aa4565b90506000611340662386f26fc1000034611a65565b905034828211156113625782915061135f82662386f26fc10000611a85565b90505b818460060160008282546113769190611a4d565b92505081905550808460080160008282546113919190611a4d565b9091555050336000908152600b850160205260409020546113d457600a84018054600181018255600091825260209091200180546001600160a01b031916331790555b336000908152600b85016020526040812080548392906113f5908490611a4d565b909155505060058401546006850154141561144957847f9e1603b5dcb6cecaa1b1eff5e13f4627f2fd2c1208eaf66c63691f6003c46beb856006015460405161144091815260200190565b60405180910390a25b604051818152339086907f0b5b4c52969ff7329ecf7ee536409fda87812b15a8622bc6e8cdeab3aee14a269060200160405180910390a35050505050565b82805461149390611aeb565b90600052602060002090601f0160209004810192826114b557600085556114fb565b82601f106114ce57805160ff19168380011785556114fb565b828001600101855582156114fb579182015b828111156114fb5782518255916020019190600101906114e0565b5061150792915061150b565b5090565b5b80821115611507576000815560010161150c565b600082601f830112611530578081fd5b813567ffffffffffffffff8082111561154b5761154b611b57565b604051601f8301601f19908116603f0116810190828211818310171561157357611573611b57565b8160405283815286602085880101111561158b578485fd5b8360208701602083013792830160200193909352509392505050565b6000602082840312156115b8578081fd5b5035919050565b6000602082840312156115d0578081fd5b813567ffffffffffffffff8111156115e6578182fd5b6115f284828501611520565b949350505050565b600080600080600080600080610100898b031215611616578384fd5b883567ffffffffffffffff8082111561162d578586fd5b6116398c838d01611520565b995060208b013591508082111561164e578586fd5b61165a8c838d01611520565b985060408b013591508082111561166f578586fd5b61167b8c838d01611520565b975060608b0135915080821115611690578586fd5b61169c8c838d01611520565b965060808b01359150808211156116b1578586fd5b6116bd8c838d01611520565b955060a08b0135945060c08b0135935060e08b01359150808211156116e0578283fd5b506116ed8b828c01611520565b9150509295985092959890939650565b60008151808452611715816020860160208601611abb565b601f01601f19169290920160200192915050565b6000825161173b818460208701611abb565b9190910192915050565b60006020808301818452808551808352604092508286019150828160051b870101848801865b8381101561185557603f1989840301855281516101408151818652611792828701826116fd565b915050888201518582038a8701526117aa82826116fd565b91505087820151858203898701526117c282826116fd565b915050606080830151868303828801526117dc83826116fd565b92505050608080830151868303828801526117f783826116fd565b60a0858101519089015260c0808601519089015260e080860151908901526101008086015190890152610120948501518882039589019590955292506118419150829050836116fd565b96890196945050509086019060010161176b565b509098975050505050505050565b60006101408083526118778184018e6116fd565b905060208382038185015261188c828e6116fd565b915083820360408501526118a0828d6116fd565b915083820360608501526118b4828c6116fd565b915083820360808501526118c8828b6116fd565b60a085018a905260c0850189905287151560e08601528481036101008601528651808252828801935090820190845b8181101561191c5784516001600160a01b0316835293830193918301916001016118f7565b505084810361012086015261193181876116fd565b9f9e505050505050505050505050505050565b60006101608083526119588184018f6116fd565b9050828103602084015261196c818e6116fd565b90508281036040840152611980818d6116fd565b90508281036060840152611994818c6116fd565b905082810360808401526119a8818b6116fd565b90508860a08401528760c08401528660e0840152856101008401528415156101208401528281036101408401526119df81856116fd565b9e9d5050505050505050505050505050565b606081526000611a0460608301866116fd565b60208301949094525060400152919050565b60208082526017908201527f50726f6a65637420646f6573206e6f742065786973742e000000000000000000604082015260600190565b60008219821115611a6057611a60611b41565b500190565b600082611a8057634e487b7160e01b81526012600452602481fd5b500490565b6000816000190483118215151615611a9f57611a9f611b41565b500290565b600082821015611ab657611ab6611b41565b500390565b60005b83811015611ad6578181015183820152602001611abe565b83811115611ae5576000848401525b50505050565b600181811c90821680611aff57607f821691505b60208210811415611b2057634e487b7160e01b600052602260045260246000fd5b50919050565b6000600019821415611b3a57611b3a611b41565b5060010190565b634e487b7160e01b600052601160045260246000fd5b634e487b7160e01b600052604160045260246000fdfea26469706673582212202651ffc4446c254c640c7af4546d185734b9d73e0b434a81bd5353a683b2a93064736f6c63430008040033",
  "linkReferences": {},
  "deployedLinkReferences": {}
}